:020000040800F2
:100000008005002005010008071F00087F1A00086E
:10001000051F0008350B0008BD2600080000000081
:10002000000000000000000000000000392500086A
:10003000370B000800000000091F00083B250008DE
:100040001F0100081F0100081F0100081F01000810
:100050001F0100081F0100081F0100081F01000800
:100060001F0100081F0100081F0100081F010008F0
:100070001F0100081F0100081F0100081F010008E0
:100080001F0100081F0100081F0100081F010008D0
:100090001F0100081F0100081F0100081F010008C0
:1000A0001F0100081F0100081F0100081F010008B0
:1000B0001F0100081F0100081F0100081F010008A0
:1000C0001F0100081F0100081F0100081F01000890
:1000D0001F0100081F0100081F0100081F01000880
:1000E0001F0100081F0100081F010008DFF810D0E1
:1000F00000F050FC00480047B53F0008AFF3008017
:10010000800500200648804706480047FEE7FEE7D6
:10011000FEE7FEE7FEE7FEE7FEE7FEE7FEE7FEE7B7
:100120009D250008ED000008202A04DB203A21FA72
:1001300002F00021704721FA02F3D040C2F1200200
:100140009140084319467047D2B201E000F8012BF4
:10015000491EFBD270470022F6E710B513460A4647
:1001600004461946FFF7F0FF204610BDF0B480EAC0
:100170000102D40F4200B2EB410F02D20246084600
:1001800011464A0042D0C30DDDB2C1F3C752AD1AC9
:10019000202D35DAC1F3160141F4000204B15242B8
:1001A000C5F1200602FA06F12A411044B3EBD05FF4
:1001B00023D0C4B1012DA0EBC35009DCF0BC4FF03B
:1001C000004202EAC352DBB200F5000000F0A6BA1A
:1001D000400000F1807000EBC350A0F1807040EA55
:1001E000D170490009E0490841EAC071A0EBC35051
:1001F00000F50000400800EBC350F0BC00F085BAE9
:100200006142012202EB4101001BF6E7F0BC70479E
:1002100081F00041AAE780F00040A7E780EA0102F0
:1002200010B502F00043400022D04A001FD0010E5A
:1002300001EB1261C0F35600C2F3560240F4000015
:1002400042F40002A0FB022000047F39140400D015
:10025000401C50EA124001D44000491EC2B20C06B4
:1002600004EBD010401C4008802A02D003E000209C
:1002700010BD20F00100002900DA0020184310BD55
:10028000420005D0C0F3C7525242914201DC002027
:10029000704700EBC15070472DE9FE4F804681EA60
:1002A0000300C00F0C46009021F0004123F00045F0
:1002B000B8EB0200A94105D24046214690461C46B3
:1002C0000B46024623F00040104347D0270DC7F3EA
:1002D0000A00C3F30A510290401A019040286BDAD9
:1002E000C3F3130040F4801B0098924620B1002312
:1002F000D2EB030A63EB0B0B01985946C0F14002A5
:10030000504600F0E1F906460D4650465946019A1E
:1003100000F0E9F910EB08006141002487EA11526E
:1003200084EAE7731A4340D0009A62B3019A012A23
:100330004FEA075215DC001B61EB02014FF000424F
:1003400002EA0752CDE90042001C41F58011324615
:100350002B4600F020FA03B0BDE8F08F404621465E
:10036000F9E7001B61EB0201001C41F58013001846
:100370005B412018A2F5001747EB030140EAD57056
:10038000B6196D4111E06D084FEA360645EAC075B1
:100390004FEA0752001B61EB0201001C41F580117E
:1003A00049084FEA30000019514132462B4603B04C
:1003B000BDE8F04F00F0E0B90098012240000023B2
:1003C000D0EB020263EBE073009821464FEAE07441
:1003D000B8EB000061EB0401E9E783F000435BE761
:1003E00081F0004158E72DE9FE4F81EA030404F053
:1003F000004421F0004100944FF0000B23F0004333
:1004000050EA01045ED052EA03045BD0C3F30A54FD
:10041000C1F30A552C44A4F2F3340194A0FB025416
:10042000C1F3130141F48011C3F3130343F48013A8
:1004300001FB024400FB034E840A970A44EA8154FC
:1004400047EA8357A4FB076802958D0A05FB0785D9
:100450004FEA932C04FB0C542705029D4FEA0658E3
:1004600047EA1637B5EB08056EEB070C870E920EC0
:1004700047EA811742EA8312A7FB0201B6EB0B01A0
:1004800064EB00042B0D43EA0C335E1844EB1C5064
:10049000DA465146E7FB0201C5F313044FEA0B337A
:1004A00043EA14534FEA0432019C43EA0603A4F1E1
:1004B0000C040294009CCDE900B400F06CF903B088
:1004C000BDE8F08F00200146F9E72DE9F04D81EA03
:1004D000030404F0004B21F0004514464FF0000ADD
:1004E00023F0004150EA050220D054EA01021DD059
:1004F000C5F30A570246C5F31303C1F31300C1F352
:100500000A5640F4801543F48013A7EB0608101B2D
:10051000D64608F2FD3873EB050002D308F1010856
:1005200001E092185B41B8F1000F03DA00200146A8
:10053000BDE8F08D00204FF48011064684460EE0A1
:10054000171B73EB050705D3121B63EB050306436B
:100550004CEA010C49084FEA300092185B4150EA1E
:100560000107EDD152EA030012D082EA040083EAC7
:100570000501084305D0101BAB4106D20122002320
:1005800006E000224FF0004302E06FF0010253103A
:100590001AEB06004CEB085110EB0A0041EB0B0183
:1005A000BDE8F04D00F0E8B8C10F80EAE070084403
:1005B000CA079623002100F0B1B80EB5C10F80EA3A
:1005C000E0700844CA07002140F233438DE80E0072
:1005D0000A460B4600F0DFF803B000BD00F0004211
:1005E00030F000400AD0C10D01F56071C0F3160073
:1005F00042EA0151C20840071143704700200146FA
:10060000704701F0004330B421F0004150EA01028C
:1006100006D00A0DA2F56072C1F31301002A02DCB4
:1006200030BC00207047440F44EAC104C100E01808
:1006300030BC00EBC25000F068B830B50B46014644
:1006400000202022012409E021FA02F59D4205D371
:1006500003FA02F5491B04FA02F52844151EA2F11B
:100660000102F1DC30BD2DE9F05F05460020924625
:100670009B4688460646814640241BE02846414664
:1006800047462246FFF750FD53465A46C01A91414D
:1006900010D311461846224600F016F82D1A67EBC3
:1006A00001084F4622460120002100F00DF817EB0B
:1006B00000094E41201EA4F10104DFDC484631460A
:1006C0002A464346BDE8F09F202A04DB203A00FA80
:1006D00002F1002070479140C2F1200320FA03F399
:1006E000194390407047202A06DBCB17203A41FA85
:1006F00002F043EAE07306E041FA02F3D040C2F1AF
:10070000200291400843194670470029A8BF70474E
:10071000401C490008BF20F00100704710B4B0FA37
:1007200080FC00FA0CF050EA010404BF10BC7047D2
:1007300049B1CCF1200421FA04F411FA0CF118BFEC
:10074000012121430843A3EB0C01CB1D4FEA0061BB
:100750004FEA102042BF002010BC704700EBC3508E
:1007600010440029A4BF10BC7047401C490008BFBA
:1007700020F0010010BC704710B5141E73F1000486
:1007800008DA401C41F1000192185B411A4301D183
:1007900020F0010010BD2DE9F04D92469B4611B1AD
:1007A000B1FA81F202E0B0FA80F220329046FFF70F
:1007B0008BFF04460F4640EA0A0041EA0B0153460C
:1007C0005A46084313D0114653EA010019D0C8F124
:1007D00040025046FFF7A8FC05460E4650465946D3
:1007E0004246FFF771FF084305D0012004E0204690
:1007F0003946BDE8F08D0020054346EAE0762C43FB
:1008000037430A986305E40AA0EB08000022FD0ABA
:1008100044EA47540A3002D500200146E9E70105C1
:1008200010196941DDE9084500196941BDE8F04D3D
:10083000A2E770B521F0004303430CD0C1F30A5581
:100840000024D5EB040564EB0403D617AD1AB341BD
:1008500002DB0020014670BD201841EB025170BD43
:100860002DE9F04D00231A461B1A8A4103DB0020B4
:100870000146BDE8F08DC1F30A52C1F3130141F402
:1008800080154FF0000BD10702D100186D41521EA8
:100890000027044640F2FF11384601EB620A3E464B
:1008A0008046024600204FF48011FFF73DFCC2193C
:1008B0007141BB1846EB0100B4EB030C75EB000C67
:1008C00004D3E41A65EB000517460E46241908F117
:1008D00001006D4180463428E3DDF91946EB06003E
:1008E000091BA84103D24FF0FF32134601E000225A
:1008F00013461BEB070046EB0A51BDE8F04DFFF72E
:100900003BBFC1F30A52C1F3130140F2FF3341F47C
:1009100080119A4202DA00200146704740F23343C8
:100920009A42A2F2334202DC5242FFF7FDBBFFF7CC
:10093000CBBE000030B5041E71F1000404DB4FF0A3
:100940000044404264EB0101141E73F1000405DB16
:100950001C464FF00043524263EB04038B4208BF36
:10096000824230BD30B5041E71F1000404DB4FF04B
:100970000044404264EB0101141E73F1000405DBE6
:100980001C464FF00043524263EB0403994208BFF8
:10099000904230BD064C074D06E0E06840F0010390
:1009A00094E8070098471034AC42F6D3FFF7A2FB57
:1009B000C8420008E842000830B504786500641CAD
:1009C00004704A53027802F0070202700020186097
:1009D00031F910401A68401C2244C0B21A6008283D
:1009E000F6D3D010186030BD1FB50021039110233D
:1009F000012203A98DE80E00134602461821034880
:100A000000F068FA9DF80C0004B010BD440000200E
:100A10001FB5002203928DF80C101023012203A9A8
:100A20008DE80E00134602461821024800F07AFBBA
:100A30001FBD0000440000200EB506491023082207
:100A40008DE80E00024601231821034800F042FA07
:100A50000EBD000010000020440000202DE9F041F0
:100A600086B0054614240020009001900290039067
:100A700004901020FFF7B8FFC0072AD064B11120FE
:100A8000FFF7DAFF15480188ADF800104188ADF88E
:100A900002108088ADF80400114E00246F460DF15D
:100AA000080800BF04EBC40006EB400008EB840319
:100AB00037F91420811CFFF77FFF641C032CF1DB46
:100AC00002982880039868800498A88006B0BDE842
:100AD000F081641E14F0FF04CBD1DDE7100000208C
:100AE000DC00002010B504460120FFF77DFF0C2834
:100AF00004D0BDE8104006A001F0E2BD08A001F05E
:100B0000DFFD2146BDE810403120FFF781BF000026
:100B10004661696C20746F20726561640D0A000083
:100B20005375636365737320746F20726561640D20
:100B30000A000000FEE7704772B6FEE770B5044693
:100B400000F0FEF80546601C02D00448007804441A
:100B500000F0F6F8401BA042FAD370BD0000002060
:100B60002DE9F84FDFF8B891002409F1040A0AF1E1
:100B7000040B23460F270BF1040EC9E00125A54005
:100B80002A40AA427DD1674ED1F804C0ACEB0608DA
:100B9000B44532D014DCBCF1030F3AD009DCBCF10F
:100BA000000F2AD0BCF1010F1CD0BCF1020F31D1D3
:100BB0001DE0BCF1110F17D0BCF1120F2AD119E0C2
:100BC000B8F5881F19D006DCB8F5803F15D0B8F508
:100BD000801F1FD111E0B8F5001F0ED0B8F5041F1B
:100BE00018D10AE0CB6815E0CB681B1D12E0CB687A
:100BF00008330FE0CB680C330CE08B682BB1012B72
:100C00004FF0080303D0456104E0042302E00561CE
:100C100000E00023FF2A01D8064601E000F10406A7
:100C20004FEA840501D9A5F12005D6F8008007FA1E
:100C300005FC28EA0C0803FA05F548EA0508C6F899
:100C400000804D68ED0062D5374DAE6946F0010673
:100C5000AE61AD6924F0030605F001050095334D42
:100C600006EB050CDCF80850A607360F07FA06F865
:100C700025EA0805DFF8B880404503D14FF00008A9
:100C800017E044E0DFF8AC80404502D14FF00108A6
:100C90000FE0DFF8A480404502D14FF0020808E0E1
:100CA000DFF89880404502D14FF0030801E04FF093
:100CB000040808FA06F848EA0508CCF808804D68E8
:100CC000D9F80060ED034D4601D5164300E0964388
:100CD0002E604D68DAF80060AD03554601D5164325
:100CE00000E096432E604D68DBF80060ED025D4643
:100CF00001D5164300E096432E604D68DEF8006093
:100D0000AD02754601D5164300E096432E60641C83
:100D10000D682A46E5407FF431AFBDE8F88F00004A
:100D200000040140000011100010024000000140CA
:100D300000080140000C0140001001400014014077
:100D400001488068704700000000002070B5040072
:100D500025D094F83D00002520B984F83C50204669
:100D600000F078FA242084F83D002068016821F022
:100D7000010101602068016841F4004101602068C0
:100D8000016821F40041016000F0BCFB4D4A61683C
:100D9000914201D84C4900E04C49884201D20120DF
:100DA00070BD4B492368B0FBF1F15E6826F03F0649
:100DB0000E435E606368934206D94FF496735943BD
:100DC0004FF47A73B1FBF3F12368491C1E6A26F0D5
:100DD0003F06314319626168914210D84900401EB4
:100DE000B0FBF1F2521CC2F30B02042A01D2042020
:100DF00022E0B0FBF1F0401CC0F30B001CE0A26845
:100E0000F2B301EBC10303EB0116431EB3FBF6F390
:100E10005B1C43F480431B0549D092B301EBC10234
:100E200002EB0111401EB0FBF1F0401CC0F30B00BF
:100E300040F4804040F400402168CA694CF6FF73DA
:100E40009A431043C861D4E907100143206802683F
:100E500022F0C00211430160D4E90301014320687C
:100E6000826848F2FF339A4311438160D4E9050157
:100E700008432168CA6822F0FF021043C86001E0FD
:100E80000EE016E02068016841F001010160256470
:100E9000202084F83D00256384F83E50002070BD7A
:100EA00001EB4106431EB3FBF6F35B1CB3E70120E5
:100EB000C2E701EB4101401EB0FBF1F0401CC0F362
:100EC0000B00B7E7A086010080841E0000093D00EA
:100ED00040420F002DE9FF4F83B00025DDE9107976
:100EE0009A4693460446DDF848800095FFF728FFB0
:100EF000064694F83D0020287CD11923012285491B
:100F00002046009600F0CCFE0028F5D194F83C0075
:100F100001286FD0012084F83C0020680168C907CF
:100F200003D1016841F0010101602068016821F4EA
:100F300000610160222084F83D00402084F83E00DA
:100F400025646762A4F82A90608D20857248E0626B
:100F5000CDE9008653465A462046049900F0A8FD84
:100F600000287DD1208DDFF8B491202768B10128B9
:100F700014D00228206801681ED041F4806101600D
:100F80002068416980690090B6E020684169816904
:100F90000091016841F400710160ADE020680168D2
:100FA00021F48061016072B6206841698169009115
:100FB000016841F400710AE041F40061016072B619
:100FC0002068416981690091016821F480610160B4
:100FD00062B691E0032868D801280CD00228434665
:100FE0004FF000024946204600960FD000F058FE10
:100FF000B0BB10E08BE032464146204600F0CFFE09
:1010000070BB20680069616A08706CE000F048FEFF
:1010100030BB72B634E02068016821F48061016061
:1010200072B620680069616A0870606A401C60627C
:10103000208D401E2085608D401E6085384846F218
:10104000A8110068B0FBF1F0C0EBC00000EB80001D
:101050000090401E009008D020684069C04300E026
:1010600029E040070CD50098F3E744F8305F677338
:10107000A573206940F02000206162B625731AE054
:101080002068016841F40071016020680069616AAC
:101090000870606A401C6062218D491E2185618D47
:1010A000491E618562B621681BE0324641462046F2
:1010B00000F075FE18B1012007B0BDE8F08F206880
:1010C0000069616A0870606A401C6062218D491E77
:1010D0002185618D491E618521684A69D243520785
:1010E0000AD409690170606A401C6062208D401E4C
:1010F0002085608D401E6085208D00287FF46AAFBA
:1011000084F83D7084F83E5084F83C50D4E70220C7
:10111000D2E70000020010000000FFFF0400010001
:101120000C0000202DE9FF4F83B09A46DDE91197AE
:1011300093460446DDF84080FFF702FE054694F82A
:101140003D0020287FD119230122404920460095E7
:1011500000F0A6FD002876D194F83C00012872D05A
:10116000012084F83C0020680168C90703D10168A8
:1011700041F0010101602068016821F40061016013
:10118000212084F83D00402084F83E00002626649B
:10119000C4F82480A4F82A90608D20852C48E06251
:1011A000CDE9007553465A462046049900F0FEFCEE
:1011B00070B930E02A463946204600F023FE58B187
:1011C000206C042804D12068016841F4007101609A
:1011D000012007B0BDE8F08F606A216800780861DF
:1011E000606A401C6062218D491E89B22185628D32
:1011F000521E628522685369DB435B070BD469B1D9
:1012000000781061606A401C6062208D401E20855D
:10121000608D401E6085208D0028CBD12A4639463E
:10122000204600F017FD0028CAD154F83D0B016894
:1012300041F400710160202004F81E09E67766770A
:101240000020C6E7FFE70220C3E70000020010000D
:101250000000FFFF10B586B00021009101910291BE
:10126000039100681349884222D1134CA06940F0D1
:101270000800A061A069694600F0080004904FF4DE
:101280004070009012200190032003900B48FFF75C
:1012900067FC0B48416841F0E06141F002014160A8
:1012A000E06940F40010E061E06900F4001004908F
:1012B00006B010BD0054004000100240000C014078
:1012C0000000014002488168027811448160704743
:1012D00000000020074810B5016841F010010160CE
:1012E000032000F067F80F2000F006F800F024F863
:1012F000002010BD0020024070B50D4D04464FF493
:101300007A712878B1FBF0F00A490968B1FBF0F076
:1013100000F0DEFA48B9102C07D200222146501EF8
:1013200000F028F800206C6070BD012070BD000046
:10133000000000200C0000200C4808B5816941F035
:1013400001018161816901F001010091C16941F0F0
:101350008051C161C06900F080500090044841682C
:1013600021F0E06141F00071416008BD00100240D1
:1013700000000140F0B40E4B1B680C46C3F302237F
:10138000C3F10705042D00D90425191D072901D231
:10139000002300E0DB1E012606FA05F1491E21406C
:1013A00099409E40761E16403143F0BC01F0ACB926
:1013B0000CED00E0064900F0070208684FF6FF0355
:1013C000184040EA0220034A1043086070470000BA
:1013D0000CED00E00000FA052DE9F0470F4605008E
:1013E00061D0434E306800F00700B84209D230683F
:1013F00020F0070038433060306800F00700B84242
:1014000051D128683B4C810712D5400703D560684D
:1014100040F4E06060602878000703D5606840F41D
:10142000605060606068A96820F0F0000843606068
:101430002878C00728D06868012810D021680228C1
:1014400010D0890700292EDA616821F003010143D9
:101450006160FFF775FC804641F288390DE0216834
:101460008903EFE78901EDE7FFF76AFCA0EB0801CC
:10147000494502D90320BDE8F0876068696800F03B
:101480000C00B0EB810FEFD1306800F00700B842DC
:101490000BD9306820F0070038433060306800F026
:1014A0000700B84201D00120E5E72878400705D5BC
:1014B0006068E96820F4E06008436060287800070D
:1014C00006D56068296920F4605040EAC100606078
:1014D00000F038F86168084AC1F30311515CC84054
:1014E0000649086006480068FFF706FF0020C2E7CB
:1014F0000020024000100240784100080C0000204B
:10150000040000200448054900684968044AC1F302
:101510000221515CC84070470C00002000100240BE
:10152000884100080448054900684968044AC1F335
:10153000C221515CC84070470C00002000100240DE
:101540008841000812A185B00FC98DE80F0014A0D2
:10155000144A006804905168134801F00C03042BEE
:1015600010D0082B0ED1C1F38343C9031DF803002B
:101570000AD5516804AAC1F34041515C0A4A50435C
:10158000B0FBF1F005B0704708494843FAE70000A6
:1015900002030405060708090A0B0C0D0E0F1010B4
:1015A000010200000010024000127A0000093D0014
:1015B0002DE9F84F040070D02078C04DC00749D005
:1015C0006868C0F38100012807D06868C0F3810013
:1015D000022809D16868C00306D52868800339D578
:1015E00060680028E7D035E06068B0F5803F0BD038
:1015F00010B1B0F5A02F11D0286820F480302860F9
:10160000286820F4802002E0286840F480302860B8
:10161000606890B1FFF794FB06460AE0286840F442
:1016200080202860F0E700BFFFF78AFB801B64285A
:1016300073D828688003F7D50CE0FFF781FB0646D6
:1016400005E000BFFFF77CFB801B6428F0D828680A
:101650008003F7D420789A4E80074FF001094FF0AD
:10166000000839D5686810F00C0F07D06868C0F31F
:101670008100022809D16868C00306D42868800761
:1016800014D52069012808D110E02069B0B1C6F84E
:101690000090FFF755FB074605E00AE1FFF750FB16
:1016A000C01B0228C4D828688007F7D5286861695C
:1016B00020F0F80040EAC10028600DE0C6F8008084
:1016C000FFF73EFB074604E0FFF73AFBC01B02288A
:1016D00023D828688007F7D4207800072CD57948CC
:1016E000A169D9B1C0F80090FFF72AFB074604E0D2
:1016F000FFF726FBC01B02280FD8686A8007F7D5C2
:1017000071484FF4FA510068B0FBF1F0009000BF4F
:101710000098411E0091FAD20EE080E0C0F80080EF
:10172000FFF70EFB074604E0FFF70AFBC01B022889
:1017300075D8686A8007F7D42078400760D5E869D3
:101740000027C00008D4E86940F08050E861E869EB
:10175000012700F0805000905C480168C90513D44F
:101760000168834641F480710160FFF7E9FA82461F
:1017700006E000BFFFF7E4FAA0EB0A0064284ED8A9
:10178000DBF80000C005F5D5E06801280AD008B1F3
:10179000052813D0286A20F001002862286A20F06A
:1017A000040002E0286A40F001002862E06841F28B
:1017B000883B98B1FFF7C4FA82460BE0286A40F0F4
:1017C00004002862EEE700BFFFF7BAFAA0EB0A01B7
:1017D00059455AD8286A8007F6D50CE0FFF7B0FAC9
:1017E000824605E0FFF7ACFAA0EB0A0159454CD858
:1017F000286A8007F6D41FB1E86920F08050E861BC
:10180000E06988B36968C1F38101022944D00228E4
:10181000C6F8608004D0FFF793FA044638E034E05D
:10182000FFF78EFA074604E0FFF78AFAC01B02288A
:101830002BD828688001F7D4206AB0F5803F05D105
:101840006868A16820F4003008436860D4E90801A2
:101850000843696821F4741108436860C6F8609011
:10186000FFF76EFA044606E025E000BFFFF768FACE
:10187000001B022809D828688001F7D51BE000BFAB
:10188000FFF75EFA001B022802D90320BDE8F88F9B
:1018900028688001F4D40EE00128F7D06868226A35
:1018A00000F48031914204D1616A00F470108842E2
:1018B00001D00120EAE70020E8E700000010024024
:1018C00000004242800442420C00002000700040B0
:1018D00010B5401EB0F1807F01D3012010BD4FF044
:1018E000E02460610F21601700F00EFF0020A0616E
:1018F00007202061002010BD70B5040004D094F8CA
:101900003D00002510B106E0012070BD84F83C5078
:10191000204600F023F8242084F83D002068C168A8
:1019200021F40051C160204600F03AFE20680169B0
:1019300021F4904101612068416921F02A0141614F
:101940002068C16841F40051C1602564202084F8FA
:101950003D0084F83E00002070BD000030B585B029
:10196000002400940194029403940068144988426E
:1019700023D11448C16941F40031C161C16901F446
:1019800000310491816941F00401816180690E4D4B
:1019900000F0040004900420009002200190032035
:1019A000039069462846FFF7DBF80820CDE90004DC
:1019B000694628460294FFF7D3F805B030BD000011
:1019C0000044004000100240000801402DE9F843A7
:1019D000044690F83D001F4616460D4620284CD17F
:1019E000C5B1BEB194F83C00012846D0012084F86E
:1019F0003C004FF00008C4F84080212084F83D00EE
:101A0000FFF79EF9A6848146E684A068B0F5805F62
:101A100003D004E00120BDE8F883206928B12E46F8
:101A20005FF0000584F83C800EE00026FAE7802194
:101A3000204600F011FEA0B9AEB116F8010B2168E6
:101A40004860E08C401EE084E08C4B464FF0000282
:101A500000970028EBD14FF04001204600F0FCFD3C
:101A600030B10320D7E735F8020BC0F30800E6E7F2
:101A7000202084F83D000020CDE70220CBE7FEE7E0
:101A800001684A69D24352050FD46FF480624A61FB
:101A9000002140F8301F202242738173026942F016
:101AA00004020261017301207047002070470000AA
:101AB0002DE9F84F0446006889460B9D0168984659
:101AC000174641F4806101602068016841F480712B
:101AD000016000954FF0011B0022594620460A9BE9
:101AE00000F0DEF84FF4007A40B120680068C005CD
:101AF00001D5C4F840A00320BDE8F88F216809F0A3
:101B0000FE0008612B46284920460A9A00F0FCF89E
:101B1000F0BB20684169806900902A4620460A99F6
:101B200000F070F940B1206C04283AD120680168B7
:101B300041F40071016034E0FEB2B8F1010F09D048
:101B40002168380A08612A4620460A9900F05AF9A5
:101B50000028E8D1206806612A4620460A9900F04C
:101B600051F90028DFD12068016841F480710160DB
:101B700000950022594620460A9B00F091F8002863
:101B8000B3D1216809F0FF0040F00100086100E0D6
:101B900007E02B46044920460A9A00F0B5F80028D1
:101BA000AAD00120A8E70000020001002DE9F843B7
:101BB000044600680D46DDE9089701689846164618
:101BC00041F4807101604B4600224FF00111204624
:101BD000009700F065F848B120680068C00502D59C
:101BE0004FF4007020640320BDE8F883216805F0FD
:101BF000FE0008613B464A461549204600F084F83D
:101C000088B920684169806900903A464946204673
:101C100000F0F8F848B1206C042804D1206801686D
:101C200041F4007101600120DEE7F5B2B8F1010F67
:101C300009D02168300A08613A464946204600F03A
:101C4000E1F80028E7D1206805610020CCE700001A
:101C50000200010070B516460D4604460DE0204610
:101C6000FFF70EFF08B1012070BD681C05D0FFF71B
:101C700067F8801BA84207D835B120684069C04387
:101C80004007ECD4002070BD002044F8300F202124
:101C90006173A073216941F0200121612073E2E7A3
:101CA0002DE9F0471E4690460D460446C1F307470E
:101CB000DDF8209008E0701C06D0FFF741F8A0EB9B
:101CC0000900B0420FD876B12068012F18D0806982
:101CD00025EA00000004000C14D000214145EAD0A0
:101CE0000020BDE8F087002044F8300F2021617308
:101CF000A073216941F02001216120730120F0E7E8
:101D00004069E5E70121E9E72DE9F0479A46914668
:101D10000E46044600254FF02008C1F3074725E092
:101D200020684069C043400514D42068016841F42C
:101D30000071016021686FF480604861256384F858
:101D40003D8084F83E50206C40F00400206484F80C
:101D50003C501FE0B9F1FF3F08D0FEF7F1FFA0EBC8
:101D60000A0149450CD8B9F1000F09D02068012FAC
:101D700013D0806926EA00000004000C0BD0CFE7E6
:101D800044F8305F84F80D80A573206940F020008E
:101D9000206125730120BDE8F0874069EAE72DE95D
:101DA000F041002590460E460446202717E0406982
:101DB000C043C0060CD454F8301B6FF010004861CB
:101DC00044F810596777A577206A2062257717E0D5
:101DD000FEF7B6FFA0EB0800B04208D83EB120687D
:101DE0004169C9434906E2D40020BDE8F08144F8C6
:101DF000305F6773A573206940F020002061257370
:101E00000120F2E770B516460D4604460DE0204667
:101E1000FFF736FE08B1012070BD681C05D0FEF743
:101E20008FFF801BA84207D835B120684069C043A6
:101E30000006ECD4002070BD002044F8300F2021B3
:101E40006173A073216941F0200121612073E2E7F1
:101E50000D4808B5816941F020018161816901F077
:101E600020010091816941F004018161816901F0E3
:101E700004010091816941F008018161806900F0ED
:101E80000800009008BD0000001002400D4810B589
:101E90000B4901600C49416000214FF48042816090
:101EA000C0E9031241618161C1610162FEF74EFF29
:101EB000002803D0BDE81040FEF73EBE10BD000074
:101EC0000054004044000020801A06000C4810B561
:101ED0000A4901604FF4E1314160002181600C2228
:101EE000C160C0E904128161C161FFF705FD0028EE
:101EF00003D0BDE81040FEF71FBE10BD00440040F7
:101F000098000020FEE7FEE7704730B504786500D2
:101F1000641C04704A53027802F007020270002029
:101F2000186031F910401A68401C2244C0B21A608F
:101F30000828F6D3D010186030BD70B50578044677
:101F4000280703D5607900F083F810E0E80705D092
:101F5000A17860780023012200F03AF82078800709
:101F600005D52179E0780023012200F08DF8207852
:101F7000400703D5A179E07900F0D0F82846BDE804
:101F8000704000F0CFB800002DE9FC4100273E462C
:101F90003D463C46684600F065FABDF9000007443E
:101FA000BDF902000644BDF9040005440A20FEF70D
:101FB000C5FD641CE4B2202CECD3044879110180E7
:101FC0007111418069118180BDE8FC812E000020E3
:101FD00038B51E4C154648B110280AD04FF480522F
:101FE000202808D030280CD0202004E04FF4804274
:101FF00001E04FF400526280012B40EA010003D05F
:1020000004E04FF40062F6E740F080008DF8000035
:10201000C1B2032000F078FA01226946062000F0E0
:1020200061FA9DF80000012D00F0F0008DF800002D
:1020300008D020F0010000218DF80010062000F0EB
:1020400063FA38BD40F00700F5E7000028000020E3
:1020500070B50C4C05460023A17860780122FFF78B
:10206000B7FF2179E0780023012200F00DF8A17973
:10207000E07900F053F82946BDE87040072000F0F1
:1020800043BA000034000020F8B51546224C10F089
:102090000F0F4FF040021FD10611082E1CD2DFE8AF
:1020A00006F004070F12150917194FF4006201E03A
:1020B0004FF48062A280012B40EA01000ED00FE0B5
:1020C0004FF40072F6E74FF48072F3E78022F1E7F5
:1020D0002022EFE71022EDE75020EBE740F08000F0
:1020E0008DF80000C1B2042000F00EFA012269460A
:1020F000062000F0F7F99DF80000012D00F00F0018
:102100008DF8000001D140F0700000218DF8001022
:10211000062000F0F9F9F8BD280000200143052051
:1021200000F0F2B9010701D540F0030040F0800152
:10213000082000F0E9B900002DE9F04186B0002444
:102140004EA08DF808408DF8044000684C4F25469D
:102150000DF10C08CDF80C0018F8050038700026B9
:1021600009E0012202A9002000F0BCF99DF8081046
:1021700044A000F0A5FA9DF80800052807D03046D5
:10218000761C0528EDDB6D1CEDB2022DE4D3012297
:1021900001A9104600F0A6F99DF80820052A06D0EE
:1021A00040A000F08DFA002006B0BDE8F0819DF857
:1021B0000430397840A000F083FA6021022000F05A
:1021C000A3F92F4803210C30502201704470817014
:1021D000C270042202718171C47107214171FFF73D
:1021E000ACFE8DF8004001226946022000F07AF929
:1021F0009DF800103FA000F063FA01226946032019
:1022000000F070F99DF8001042A000F059FA012288
:102210006946042000F066F99DF8001045A000F022
:102220004FFA01226946052000F05CF99DF8001084
:1022300048A000F045FA01226946062000F052F954
:102240009DF800104BA000F03BFA012269460720E0
:1022500000F048F99DF800104EA000F031FA01227C
:102260006946082000F03EF99DF8001051A000F0EA
:1022700027FAFFF789FE012096E70000D4D6000078
:1022800028000020514D493836353852656769734A
:102290007465725F57686F416D49203D2030782525
:1022A000780A0000514D49383635385F696E6974D7
:1022B000206661696C0A0000514D49383635385F37
:1022C000696E697420736C6176653D30782578207D
:1022D00020514D49383635385265676973746572D7
:1022E0005F57686F416D493D3078257820307825FB
:1022F000780A0000514D49383635385265676973A0
:102300007465725F4374726C313D30782578200AB1
:1023100000000000514D4938363538526567697301
:102320007465725F4374726C323D30782578200A90
:1023300000000000514D49383635385265676973E1
:102340007465725F4374726C333D30782578200A6F
:1023500000000000514D49383635385265676973C1
:102360007465725F4374726C343D30782578200A4E
:1023700000000000514D49383635385265676973A1
:102380007465725F4374726C353D30782578200A2D
:1023900000000000514D4938363538526567697381
:1023A0007465725F4374726C363D30782578200A0C
:1023B00000000000514D4938363538526567697361
:1023C0007465725F4374726C373D30782578200AEB
:1023D0000000000008B502226946332000F082F8B0
:1023E000BDF90000FEF7E0F8BDE808406FF0070116
:1023F000FDF746BF2DE9F0418CB005460020009066
:1024000001900290062209A9352000F06BF8BDF872
:102410002400ADF81C00BDF82600ADF81E00BDF884
:1024200028000F4EADF82000002407AFE84600BF9B
:1024300004EBC40006EB400008EB840337F91420DA
:10244000811CFFF762FD641C032CF1DB00982880DF
:10245000019868800298A8800CB0BDE8F081000067
:10246000120100202DE9F0418CB0054600200090BB
:1024700001900290062209A93B2000F033F8BDF834
:102480002400ADF81C00BDF82600ADF81E00BDF814
:102490002800124EADF82000002407AFE84600BF28
:1024A00004EBC40006EB400008EB840337F914206A
:1024B000811CFFF72AFD641C032CF1DB08480099FE
:1024C0000288891A298042880199891A698080883E
:1024D0000299081AA8800CB0BDE8F08148010020DC
:1024E0002E0000200EB510238DE80E000246044891
:1024F000012301780348FEF7EDFC00200EBD00002B
:1025000028000020440000201FB5002203928DF80F
:102510000C101023012203A98DE80E001346024679
:10252000034801780348FEF7FDFD04B0002010BD0C
:1025300028000020440000207047FEF7C3BE30B5DD
:102540008FB028216846FDF706FE14210AA8FDF782
:1025500002FE01210804CDE90010002402940225A6
:102560000491CDE907504FF4E01009906846FFF759
:102570001FF808B172B6FEE70F20CDE90A054FF447
:102580008060CDE90C4002210AA80E94FEF724FFDA
:10259000002801D072B6FEE70FB030BD70470000D2
:1025A00070B5044600680169E26821F440511143A6
:1025B00001612169A0680843616908432168CA680C
:1025C00041F20C639A430243CA6020684169A269E0
:1025D00021F44071114341611E492068884202D1B3
:1025E000FEF7A0FF01E0FEF78DFF00EBC00101EB5D
:1025F0000012606864218000B2FBF0F3B3FBF1F3DA
:102600006FF018067343B2FBF0F5B2FBF0F605EB82
:102610008305322303EB0515B5FBF1F5B6FBF1F6A7
:1026200005F0F00505EB0615B2FBF0F6B2FBF0F095
:10263000B0FBF1F06FF01802504306EB800003EBA3
:102640000010B0FBF1F0216800F00F002844886012
:1026500070BD0000003801402DE9F0419846174652
:102660000E460446069D1DE0681C1BD02DB1FEF7EA
:1026700067FBA0EB0800A84214D92068C16821F4C8
:10268000D071C1602068416921F0010141612020C1
:1026900084F83D0084F83E00002084F83C000320CC
:1026A000BDE8F0812068006836EA000004D0002010
:1026B000B842D9D00020F3E70120F9E7FEE7000097
:1026C0000FB4054B10B503A9044A029800F06CF949
:1026D00010BC5DF814FB0000DD3600083C00002053
:1026E000490050EAC12018BF04204A0D18BF40F02D
:1026F000010040F2FF72B2EB515F08BF40F00200F0
:10270000012808BF052070470907090E002804DBCF
:1027100000F1E02080F80014704700F00F0000F195
:10272000E02080F8141D70472DE9F0414F1E00EBAA
:10273000C7010446D1E9000115461E4637F00602DE
:102740000DD02A463346FDF74EFE7F1E04EBC7032D
:10275000D3E90023FDF7A0FD37F00602F1D1022FE7
:1027600025D0042F13D0062F18BFBDE8F0812A46CC
:102770003346FDF738FED4E90A23FDF78DFD2A46DE
:102780003346FDF730FED4E90823FDF785FD2A46E0
:102790003346FDF728FED4E90623FDF77DFD2A46E2
:1027A0003346FDF720FED4E90423FDF775FD2A46E4
:1027B0003346FDF718FED4E90223FDF76DFD2A46E6
:1027C0003346FDF710FED4E90023BDE8F041FDF7E4
:1027D00063BD0122FEF72DB8FDF75EBD0022134652
:1027E00010461146FDF771BE024A00201107FEF7A0
:1027F00020B8000001FDFFFF02E008C8121F08C159
:10280000002AFAD170477047002001E001C1121F71
:10281000002AFBD1704700000149086070470000A2
:10282000400000202DE9FF5F82B00021DDE9043087
:10283000020DDDF840B0034318D044F61050A2F268
:10284000FF3242431514119801281FD0A5EB0B004D
:10285000401C5FEA000A4FF000064E4FDFF8389147
:10286000B046504615D5CAF1000413E01198012472
:102870004AA3012801D16FEA0B010298119AC0E91D
:102880000031C0E9024206B0BDE8F09FCBF1000084
:10289000DFE704460021404A491842EB0450CDE9E5
:1028A000001012E0E00707D032463B46404649465A
:1028B000FDF799FD8046894632463B46104619464B
:1028C000FDF791FD06460F466410002CEAD1DDE9C4
:1028D0000401DDE90023BAF1000F06DAFDF783FDFC
:1028E00042464B46FDF77FFD05E0FDF7EEFD424613
:1028F0004B46FDF7EAFD04460E460022284BFEF744
:1029000031F803D84FF0FF30014607E00022254B95
:1029100020463146FDF7C0FCFDF7F3FF102409E027
:10292000002C0ADB0A220023FDF79DFE039B3032B8
:102930001A55641E50EA0102F2D1641C039AC4F1D4
:1029400011031444119A012A03D0012208430DD126
:102950000AE0084304D000204FF0110B119072E7F9
:10296000A3EB0B056D1E0DE05B4504DD4FF000028F
:1029700005F1010504E003DA4FF00002A5F10105BD
:10298000002AECD002981199C0E90231C0E9004553
:1029900079E70000000014400000F03F3000000024
:1029A0000000F0430000E03F2DE9FF4F95B09A464C
:1029B000884606460025EEE1252877D100242746E3
:1029C000F94A0121039400E0044316F8013F203B3B
:1029D00001FA03F01042F7D130782A2811D06FF0B5
:1029E0002F033078A0F13002092A16D8039A44F058
:1029F000020402EB820203EB42021044761C0390B5
:102A0000EFE758F8042B0392002A03DA504244F40B
:102A10000054039044F00204761C30782E2816D11E
:102A200016F8010F44F004042A280DD06FF02F028D
:102A30003078A0F13003092B09D807EB870302EBAC
:102A40004303C718761CF3E758F8047B761C3078EC
:102A50006C280FD006DC4C2817D068280DD06A28C7
:102A600014D104E0742810D07A280FD10DE044F47A
:102A700000140AE044F4801401E044F44014727835
:102A8000824202D104F58014761C761C30786628C8
:102A90000BD013DC582877D009DC002875D04528E6
:102AA000F6D04628F4D047281AD193E118E06328DD
:102AB00035D0642879D0652812D18BE1702873D085
:102AC00008DC6728F1D069286FD06E280DD06F28F8
:102AD00006D1ACE073282CD0752874D0782853D058
:102AE0005246179990476D1C54E1C4F302500228D6
:102AF00009D003280DD0D8F8001004280DD00D609F
:102B000008F1040846E1D8F80010EA17C1E90052BC
:102B1000F6E7D8F800100D80F2E70D70F0E718F82E
:102B2000041B8DF8001000208DF80100EB460120F9
:102B300003E058F804BB4FF0FF3061074FF000018D
:102B400002D40DE009F101018946B9420FDA81454D
:102B5000F8DB1BF809100029F4D108E009F10101A4
:102B600089468142FADB1BF809100029F6D1039847
:102B70005346A0EB090721463846179A00F080FA21
:102B8000284400EB090507E044E008E10DE01BF8EC
:102B9000010B524617999047B9F10109F7D25346F4
:102BA00021463846179AF2E039E00A21C4F302526E
:102BB0004FF0000B0091022A06D058F8040BC11701
:102BC000032A09D00AE023E008F1070020F00702F9
:102BD000F2E80201904605E000B2C117042A01D1D3
:102BE00040B2C117002906DA0A460021404261EBD3
:102BF00002012D2202E0220504D52B228DF80420AB
:102C0000012203E0E20701D02022F7E7914657E0D6
:102C10000A2100E010214FF0000B00910BE0102181
:102C20004FF0000B44F004040827009103E0082053
:102C30004FF0000B0090C4F30252022A05D058F85E
:102C4000040B0021032A08D008E008F1070020F057
:102C50000702F2E80201904603E080B2042A00D1A4
:102C6000C0B24FF0000922072AD53278702A07D067
:102C7000DDF800C08CF0100C5CEA0B0C05D00EE007
:102C800040228DF80420012208E050EA010306D01A
:102C900030238DF804308DF8052002229146009BE8
:102CA00083F0080353EA0B030AD150EA010201D171
:102CB000620705D530228DF804204FF001097F1EF0
:102CC0003278582A04D039A20C920CAA02920BE056
:102CD0003BA2F9E75B46009AFDF7C5FC0C9B9B5CA9
:102CE000029A521E0292137050EA0102F2D1029827
:102CF00004A9081A00F1200B600702D524F48034DF
:102D000000E001275F4502DDA7EB0B0000E000209B
:102D100000EB0B01009003984944401A0390E00334
:102D200006D453462146179A039800F0A9F90544A2
:102D3000002706E001A85246C05D179990476D1C18
:102D40007F1C4F45F6DBE0030CD553462146179A0E
:102D5000039800F095F9054404E030205246179995
:102D600090476D1C0099481E00900029F5DC08E092
:102D70000298029952460078491C0291179990478F
:102D80006D1CBBF10001ABF1010BF1DC5BE100F06C
:102D900065F90544761C307800287FF40DAE19B033
:102DA0002846BDE8F08F0000092801003031323399
:102DB0003435363738396162636465660000000077
:102DC0003031323334353637383941424344454661
:102DD00000000000600700D4062708F1070020F07B
:102DE0000700F0E80223804603F0004C5FEA0C0085
:102DF00001D097A009E0200501D596A005E0E007E5
:102E000001D095A001E0AFF24C001390307823F090
:102E1000004365280CD006DC452809D046281DD083
:102E200047287FD13BE0662818D067287AD136E062
:102E30000021112F01DB112000E0781CCDE90001F9
:102E400004A90CA8FFF7EEFCDDE90D010C9A4FF088
:102E5000000B07F10109109200914EE04FF0004085
:102E60000097CDE9011004A90CA8FFF7DBFCDDE910
:102E70000D020C9B0F994FF0000B9146109300929E
:102E800011B9791C00EB0109B7EB090003D4C0F1BB
:102E9000FF3B07F10109A9EB0700019042E0012F78
:102EA00000DA01270021112F01DD112000E0384652
:102EB000CDE9000104A90CA8FFF7B4FCDDE90D0180
:102EC0000C9A00914FF0000BB946109221070FD4D5
:102ED000009A4A4503DA914601E0A9F10109B9F1E6
:102EE000010F05DD109AA9F10101515C3029F4D0E0
:102EF000B84202DA10F1040F03DA0121CDE9011022
:102F000010E0002803DC8344A9EB000102E0411C2F
:102F1000494500DD8946A0EB0B00401C01904FF0B5
:102F200000400290200705D40198484502DB4FF08D
:102F3000FF30019000208DF84B0002980DF14B07F7
:102F4000B0F1004F25D002200C902B200D9002985C
:102F500000280CDA404202902D200D9007E00A2153
:102F60000298FDF76AFB3031029007F8011D0C99B9
:102F7000481E0C900029F2DC02980028EFD1791E3F
:102F80000D980870307800F0200040F0450007F8F8
:102F9000020D11A8C01BC01D02901398007800B14B
:102FA000012000EB0901019801EBE0710298014456
:102FB0000398401A401E0390E00306D4534621466E
:102FC000179A039800F05CF805441398007818B13C
:102FD0005246179990476D1CE00323D5534621466E
:102FE000179A039800F04CF805441BE0BBF1000F62
:102FF00007DB0098584504DD1098179910F80B006E
:1030000001E0179930205246904701980BF1010BCF
:10301000401E05F10105019004D12E20524617995A
:1030200090476D1CB9F10001A9F10109DEDC05E052
:1030300017F8010B5246179990476D1C0299481ECC
:1030400002900029F4DC53462146179A03989EE625
:103050002D0000002B000000200000002DE9F041B1
:10306000044600251E461746880404D405E0394668
:103070002020B0476D1C641EF9D52846BDE8F081BC
:103080002DE9F041044600251E469046C80301D5AF
:10309000302700E02027880404D505E04146384663
:1030A000B0476D1C641EF9D52846BDE8F0810000CC
:1030B0002DE9F04D8D4F21F0004A86B005460C46B3
:1030C000BA452ADBAAEB070028430AD08848824584
:1030D00001DC1AD1CDB106B02846BDE8F04DFFF7AE
:1030E00078BB844A844B2846FDF77DF907460E4697
:1030F000824A834B28462146FDF775F906B03A46C9
:103100003346BDE8F04DFDF7C7B80120FFF784FB5B
:1031100006B0BDE8F04DFFF761BB7A48824542DA60
:10312000BAF1795F0BDA2846FFF7DAFA042808BF0C
:10313000FFF75AFB284606B02146BDE8F08D2A4627
:103140000B461046FDF74FF9834602466E480E4681
:103150000B4606217844FFF7E7FA5A463346FDF757
:1031600042F9804669488A465A46334604217844E3
:10317000FFF7DAFA5A463346FDF735F900223B46A7
:10318000FDF78AF802460B4640465146FDF79DF989
:103190002A462346FDF727F906B02A462346BDE80E
:1031A000F04DFDF779B8284624F0004100223D4655
:1031B0003B46FDF715F94FF0FF32FDF73AFB0646A7
:1031C000024653480F460B4606217844FFF7ACFAF7
:1031D00032463B46FDF707F9CDE900014D4832463E
:1031E0003B4604217844FFF79FFA32463B46FDF701
:1031F000FAF800222B46FDF74FF88346029130463D
:10320000394600F093FF804643480D46504517DC91
:10321000DDE900015A46029BFDF757F942462B466D
:10322000FDF7E1F842462B46FDF736F80122FDF79F
:1032300000FB304A304BFDF7D0F8304A304B4CE0C1
:103240004FF0000A52460B464046FDF725F8CDE9FF
:10325000031052462B4610461946FDF7C4F8324675
:103260003B46FDF7BDF8DDE90332FDF72EF90646D2
:103270000F46DDE900015A46029BFDF726F9834619
:103280000091012230463946FDF7D3FA194A1A4B0C
:10329000FDF7A6F806460F46012240462946FDF7EF
:1032A000C8FA5A46009BFDF79EF832463B46FDF7AA
:1032B00094F806460F46012250462946FDF7B9FA12
:1032C0000E4DDFF858802A464346FDF789F832460E
:1032D0003B46FDF785F82A464346FDF781F8002C6A
:1032E000D8BF81F0004106B0BDE8F08D0000F03F8E
:1032F0000000F07F075C143326A6913C182D44543F
:10330000FB21F93F0000E03F381000004E100000A4
:10331000C20F0000D80F00003333EF3FFB21E93F1D
:103320002DE9F84F04460D4621F000400091734905
:10333000814211DC7249884201DC06D12CB1204661
:103340002946BDE8F84FFFF744BA6E48002DCCBFC0
:103350006D496E49BDE8F88F6D49814211DD6D49B7
:103360008142D8BF4FF0FF366DDD20462946FFF77A
:10337000B7F9042808BFFFF737FA20462946BDE809
:10338000F88F6549654F25F00045814233DD64497A
:10339000814219DD002632464FF0804320462946FF
:1033A000FCF77AFF80468A46012220462946FDF72F
:1033B00040FA00223B46FDF710F842465346FDF71F
:1033C00084F804460D463EE001260022BA463B46FC
:1033D00020462946FCF760FF80460F4600225346F0
:1033E00020462946FCF7F9FF42463B46FDF76DF8BB
:1033F00004460D4627E04B4981421BDDDFF828A13A
:1034000002260022534620462946FCF7ECFF002204
:103410003B46FCF741FF80460F46002253462046BC
:103420002946FCF7DAFF42463B46FDF74EF80446D4
:103430000D4608E0032622462B4600203B49FDF7B7
:1034400044F804460D4622462B4610461946FCF722
:10345000CAFF8B46824602460B46FCF7C4FF07466E
:103460000246334888460B4606217844FFF75CF94C
:1034700052465B46FCF7B7FF82462E488B463A46DB
:10348000434605217844FFF74FF93A464346FCF797
:10349000AAFF02460B46002E504659460CDAFCF7AE
:1034A000FBFE22462B46FCF79EFF01B022462B4630
:1034B000BDE8F04FFCF794BFFCF7EEFE22462B462A
:1034C000FCF791FF1C4A7A4402EBC603D3E90023C0
:1034D000FCF783FF22462B46FCF77FFF174A7A440E
:1034E00002EBC603D3E90023FCF77AFF009A002A17
:1034F000B8BF81F00041BDE8F88F00000000104423
:103500000000F07F182D4454FB21F93FFB21F9BF47
:103510000000DC3F0000203E0000F33F0000F03FD1
:103520000000E63F008003400000F83F0000F0BFCD
:10353000DA0D0000980D0000360D0000FE0C0000B2
:103540002DE9F04D9446CCF1000423F000464CEAFE
:103550000404594F46EAD4749A46884621F0004242
:10356000BC4206D8454240EA050442EAD474BC4253
:1035700004D9BDE8F04D6246FFF72EB9AAF14055D7
:10358000A5F17F6555EA0C040BD0022404EAAA7465
:103590004A4DDFF82CE144EAD87452EA000B04D01B
:1035A0000CE0BDE8F04DFFF7BBBE002C14BF012CB2
:1035B000BDE8F08D022C30D0032C32D056EA0C0B33
:1035C0000AD0BE4220D1BA4209D126F0804622F06C
:1035D00080423346114617E000291ADB25E0DFF868
:1035E000E4B0FB44002C04BFDBE90001BDE8F08D32
:1035F000012C02BFDBE9000181F00041BDE8F08D44
:10360000022C0AD0032C0CD0BA4212D1B8F1000F10
:103610000BDA2A482C49BDE8F08D28462B49BDE835
:10362000F08D28467146BDE8F08D24482849BDE854
:10363000F08D921B12153C2AC4BF204F244E10DC83
:10364000BAF1000FBEBF12F13C0F00273E4608DB67
:103650006246FCF73AFF21F00041FFF761FE0746A2
:103660000E4694B1012C08BF86F000460DD0194AD1
:10367000194B022C3846314615D0FCF7AEFE2A46CF
:10368000BDE8F04D114BFCF7A8BE002213463846AA
:103690003146FDF74FF904BF0220FFF7BDF8384669
:1036A0003146BDE8F08DFCF798FE2A46BDE8F04DA6
:1036B000064BFCF795BE00000000F07F182D445427
:1036C000FB2109C0920C0000FB21F9BFFB2109403E
:1036D000FB21F93F075C143326A6A13C13B54FF636
:1036E000FF73012269460248FEF770F900981CBD7D
:1036F000980000202DE9FF4F99B027AC002094E8F6
:103700004006DDF89880059004900390FE4CFD483B
:10371000009021688B465846FCF780FD099061684F
:1037200058460F46FCF77AFD0890A16858460D46AA
:10373000FCF774FD0C90E16858460C46FCF76EFDF2
:10374000834639460846FCF769FD07902946384606
:10375000FCF764FD0B9021463846FCF75FFD2946D7
:103760000A900846FCF75AFD029021462846FCF7CD
:1037700055FD214606900846FCF750FD3146019064
:103780000846FCF74BFD054641460846FCF746FD5A
:103790001C9904460846FCF741FD2146FCF7E6FC6F
:1037A0002946FCF7E3FC00F0EBFB044601461C98BD
:1037B000FCF734FD1C9021464046FCF72FFD269077
:1037C00021463046FCF72AFD2A9927900846FCF747
:1037D00025FD044651460846FCF720FD05464946AE
:1037E0000846FCF71BFD2946FCF7C0FC2146FCF708
:1037F000BDFC00F0C5FB044601464846FCF70EFD43
:10380000289021465046FCF709FD299021462A9828
:10381000FCF704FD2A900C990A98FCF7A7FC0446D3
:10382000129001212A98FCF72BFD80462146FCF7D7
:10383000F5FC054659460B98FCF7EAFC0446139044
:1038400001212998FCF71CFD81462146FCF7E6FC86
:1038500007464FF07C5420460299FCF7D9FC0199A9
:10386000FCF7D6FC064601212898FCF709FD8246A4
:103870003146FCF7D3FC3946FCF778FC2946FCF7C7
:1038800075FC064608990698FCF7C2FC01464046BE
:10389000FCF7C4FC054620460799FCF7B9FC044632
:1038A0000199FCF7B5FC01464846FCF7B7FC074612
:1038B00059460B98FCF75AFC01465046FCF7AEFC03
:1038C0003946FCF753FC2946FCF750FC05462046D8
:1038D0000299FCF79DFC01464046FCF79FFC074619
:1038E00008990698FCF742FC014610904846FCF700
:1038F00095FC04460C990A98FCF78AFC80464146E0
:103900005046FCF78BFC2146FCF730FC3946FCF7AF
:103910002DFC044629460846FCF780FC0546314646
:103920000846FCF77BFC2946FCF720FCFCF756FE1A
:1039300000F0FCFBFCF765FE814640460121FCF7E8
:103940009FFC0E9001211098FCF79AFC8346079982
:103950000998FCF75DFC0299FCF75AFC0199FCF709
:1039600005FC8246454601212046FCF789FC294694
:103970001190FCF753FCFCF731FE0746884601988E
:10398000FCF72CFE05460E460298FCF727FE04467F
:1039900000225E4B0291FCF723FD2A463346FCF7DA
:1039A0001CFD05460E4601214846FCF769FC814690
:1039B000FCF714FE2A463346FCF715FD3A4643460B
:1039C000FCF76AFCFCF71DFE0646DDE91010FCF76B
:1039D00025FC054648461399FCF720FC2946FCF7D0
:1039E000C5FB0299054627460C460798FCF7F6FDED
:1039F0000022464BFCF7F4FC3A462346FCF7EDFC6C
:103A000007460C461198FCF7E9FD3A462346FCF7B9
:103A1000EAFC07460C4648461299FCF7FFFBFCF708
:103A2000DDFD3A462346FCF737FCFCF7EAFD074686
:103A300029462A98FCF7F2FB044639462998FCF7F8
:103A4000EDFB2146FCF7E4FB044659462798FCF7BA
:103A5000E5FB804651462698FCF7E0FB4146FCF723
:103A6000D7FB2146FCF782FB814639462898FCF7B4
:103A7000D5FB044631462A98FCF7D0FB2146FCF7DB
:103A8000C7FB044651461C98FCF7C8FB07460E9935
:103A90002798FCF7C3FB3946FCF7BAFB2146FCF735
:103AA00065FB044631462998FCF7B8FB06462946D3
:103AB0002898FCF7B3FB3146FCF7AAFB06460E99A3
:103AC0002698FCF7ABFB054659461C98FCF7A6FB6D
:103AD0002946FCF79DFB3146FCF748FB054619F0EB
:103AE000FF4F47D014F0FF4F44D015F0FF4F41D0A7
:103AF00048460099FCF792FB0599FCF737FB064610
:103B0000204605E0A69BC43C180000200000E03FD2
:103B10000099FCF783FB0499FCF728FB074628462D
:103B20000099FCF77BFB0399FCF720FBDFF898A1D9
:103B3000804651464846FCF771FB1999FCF716FB85
:103B40003146FCF713FB199051462046FCF766FB03
:103B50001A99FCF70BFB3946FCF708FB1A90514603
:103B60002846FCF75BFB1B99FCF700FB4146FCF782
:103B7000FDFA1B90554C1B99E0688246FCF74EFB02
:103B80000746A0681A998146FCF748FB6668054617
:103B900086F000401999FCF741FB2946FCF738FBF9
:103BA0003946FCF735FB0099FCF738FB2168FCF738
:103BB000DDFA2060074650461A99FCF72FFB0546B0
:103BC00048461B99FCF72AFB804639461998FCF7B2
:103BD00025FB4146FCF7CAFA2946FCF719FB009978
:103BE000FCF71CFB3146FCF7C1FA06466060514603
:103BF0001998FCF713FB804630461B99FCF70EFB27
:103C0000054638461A99FCF709FB2946FCF700FBE4
:103C10004146FCF7ABFA0099FCF700FB4946FCF77C
:103C2000A5FA0546A06029461998FCF7F7FA8146DF
:103C300030461A99FCF7F2FA804638461B99FCF791
:103C4000EDFA4146FCF792FA4946FCF7E1FA009991
:103C5000FCF7E4FA5146FCF789FA0146E060FCF70C
:103C6000DDFA804629460846FCF7D8FA0546314673
:103C70000846FCF7D3FA064639460846FCF7CEFA62
:103C80003146FCF773FA2946FCF770FA4146FCF717
:103C90006DFA00F075F9054601462068FCF7BEFA9A
:103CA000206029466068FCF7B9FA60602946A06880
:103CB000FCF7B4FAA0602946E068FCF7AFFAE060D0
:103CC0001DB0BDE8F08F00000000904018000020FB
:103CD0002DE9F04F8DB080461D4616460F4605A8CB
:103CE000FEF788FB07A8FEF7BDFB09A8FCF7B6FEA8
:103CF000BDF91C00FCF761FCDFF84C924FF0663216
:103D00004B46FCF7E2FBFCF77CFC8246BDF91E004B
:103D1000FCF753FC4FF066324B46FCF7D6FBFCF742
:103D200070FC0446BDF92000FCF747FC4FF06632FA
:103D30004B46FCF7CAFBFCF764FC8146BDF9140056
:103D4000FCF732FC0B90BDF91600FCF72DFC0C9033
:103D5000BDF91800FCF728FC0090BDF92400FCF721
:103D600023FC0190BDF92600FCF71EFC0290BDF972
:103D70002800FCF719FC03904846FCF72FFCDFF8FD
:103D8000D0B1724A5B46FCF72EFBFCF73AFC814649
:103D90002046FCF723FC6D4A5B46FCF724FBFCF74E
:103DA00030FC04465046FCF719FC684A5B46FCF7B9
:103DB0001AFBFCF726FC84469DE80F000DF1040A6F
:103DC0008AE80F000C9800904A46214660460B9BFB
:103DD000FFF790FC5F4C01212068FCF751FAA168C5
:103DE000FCF71CFA81464FF040416068FCF716FA78
:103DF000E168FCF713FA4946FCF7B8F9FCF7EEFB6B
:103E0000FFF756F94FF06632534BFCF7ECFAFCF72C
:103E1000F8FBC8F80400A06801218146FCF730FADD
:103E200049460090FCF7FAF9814660684FF040413E
:103E30008246FCF7F3F95146FCF7F0F94946FCF7E6
:103E4000E7F94FF07E51FCF791F9FCF7C7FB81468B
:103E50008B4601212068FCF713FA5146FCF7DEF986
:103E600082460098E168FCF7D9F95146FCF77EF9E3
:103E7000FCF7B4FB4A465B46FFF762FB4FF0663245
:103E8000354BFCF7B0FAFCF7BCFBC8F80800E0685B
:103E900001218346FCF7F4F95946FCF7BFF9814646
:103EA000A06801210090FCF7EBF90099FCF7B6F946
:103EB0004946FCF75BF94FF07E51FCF7A9F9FCF796
:103EC0008DFB81468A4601212068FCF7D9F95946C5
:103ED000FCF7A4F983464FF040416068FCF79EF977
:103EE0000099FCF79BF95946FCF792F9FCF776FB31
:103EF0004A465346FFF724FB4FF06632164BFCF759
:103F000072FAFCF77EFBC8F80000BDF81C00388090
:103F1000BDF81E007880BDF82000B880BDF8140000
:103F20003080BDF816007080BDF81800B080BDF874
:103F300024002880BDF826006880BDF82800A880ED
:103F40000DB0BDE8F08F000066664040EC51B81E31
:103F500085EB913F1800002066A64C4010B5FEF797
:103F6000EBF80420FCF7BEFD04484FF07E510160E1
:103F7000002141608160C16010BD00001800002078
:103F800010B504464FF0FF31FCF77AF90849A1EB70
:103F900064042146FCF742F92146FCF73FF94FF053
:103FA0007F51FCF738F92146BDE81040FCF736B9DF
:103FB000DF59375F8EB0FDF78DF9FEF7C0FAFDF7D8
:103FC00047FFFDF763FFFDF781FFFFF7C7FF08AB72
:103FD00006AA04A90AA8FFF77BFEFEF7FBF98046B4
:103FE0001E48FEF76DFB0A98FCF7F8FA06460F46E6
:103FF0000B98FCF7F3FA04460D460C98FCF7EEFA22
:104000008DE8F00002460B4615A0FEF759FBBDF9FE
:104010001C30BDF91A20BDF918101DA0FEF750FB89
:10402000BDF91430BDF91220BDF9101024A0FEF71F
:1040300047FBBDF92430BDF92220BDF920102BA08B
:10404000FEF73EFB4046FCF7C9FA02460B4632A09B
:10405000FEF736FB6420FCF771FDB8E780420008EC
:104060000D0A20526F6C6C3A20252E3266202020DB
:10407000202050697463683A20252E326620202063
:1040800020205961773A20252E3266200D0A000043
:104090000D0A20416363656C65726174696F6E3AE5
:1040A00020583A2025642020202020593A202564D9
:1040B00020202020205A3A202564200D0A000000EC
:1040C0000D0A204779726F73636F70653A20583A12
:1040D0002025642020202020593A202564202020FB
:1040E00020205A3A202564200D0A00000D0A204D98
:1040F00061676E657469633A20583A202564202010
:10410000202020593A20256420202020205A3A20BF
:104110002564200D0A0000000D0A20514D49546508
:104120006D703A252E326620430D0A002DE9F041CC
:1041300006460F46FCF794FB041E0D4618BF0120EF
:10414000284320F00040C0F17F6000F1E040C00F44
:104150000ED0301C18BF0120384320F00040C0F1C1
:104160007F6000F1E040C00F04BF0120FEF754FB68
:1041700020462946BDE8F081000000000000000054
:1041800001020304060708090000000001020304FD
:10419000555555555555C53F7D6FEB0312D6D4BFC8
:1041A0005544880E55C1C93F3B8F68B52882A4BFCE
:1041B00088B20175E0EF493F09F7FD0DE13D023F8F
:1041C0004B2D8A1C273A03C0C88A599CE52A004017
:1041D00059018D1B6C06E6BF82922EB1C5B8B33F64
:1041E0004FBB610567ACDD3F182D4454FB21E93F0F
:1041F0009BF681D20B73EF3F182D4454FB21F93FFE
:10420000E2652F227F2B7A3C075C143326A6813C83
:10421000BDCBF07A8807703C075C143326A6913C2E
:10422000C4EB98999999C9BF711623FEC671BCBF9A
:104230006D9A74AFF2B0B3BF9AFDDE522DDEADBF02
:104240002F6C6A2C44B4A2BF0D5555555555D53F1A
:10425000FF8300922449C23F6E204CC5CD45B73F35
:10426000513DD0A0660DB13FEB0D76244B7BA93FAD
:1042700011DA22E33AAD903F000000000000000098
:104280000D0A202F2D2D2D2D2D2D2D2D2D2D2D2DAC
:104290002D2D2D2D2D2D2D2D2D2D2D2D2D2D2D2D4E
:1042A0002D2D2D2D2D2D2D2D2D2D2D2D2D2D2D2D3E
:1042B0002D2D2D2D2D2D2D2D2D2D2D2D2D2D2D2D2E
:1042C0002D2F200D0A000000E84200080000002009
:1042D00044000000F82700082C4300084400002098
:1042E0003C05000008280008010000001000000044
:1042F000000000000024F4000000000000000000A6
:1043000000000000000000000000000000000000AD
:10431000D6000000000000000000000000000000C7
:0C43200000000000000000000000000091
:04000005080000ED02
:00000001FF
