:020000040800F2
:10000000C004002005010008FB1B0008731700084E
:10001000F91B0008290800086522000800000000FC
:100020000000000000000000000000001D1C00088F
:100030002B08000800000000FD1B00081F1C000822
:100040001F0100081F0100081F0100081F01000810
:100050001F0100081F0100081F0100081F01000800
:100060001F0100081F0100081F0100081F010008F0
:100070001F0100081F0100081F0100081F010008E0
:100080001F0100081F0100081F0100081F010008D0
:100090001F0100081F0100081F0100081F010008C0
:1000A0001F0100081F0100081F0100081F010008B0
:1000B0001F0100081F0100081F0100081F010008A0
:1000C0001F0100081F0100081F0100081F01000890
:1000D0001F0100081F0100081F0100081F01000880
:1000E0001F0100081F0100081F010008DFF810D0E1
:1000F00000F088FB00480047A1250008AFF300800E
:10010000C00400200648804706480047FEE7FEE797
:10011000FEE7FEE7FEE7FEE7FEE7FEE7FEE7FEE7B7
:10012000811C0008ED000008202A04DB203A21FA97
:1001300002F00021704721FA02F3D040C2F1200200
:100140009140084319467047D2B201E000F8012BF4
:10015000491EFBD270470022F6E710B513460A4647
:1001600004461946FFF7F0FF204610BD80EA010261
:1001700010B502F00043400022D04A001FD0010E0B
:1001800001EB1261C0F35600C2F3560240F40000C6
:1001900042F40002A0FB022000047F39140400D0C6
:1001A000401C50EA124001D44000491EC2B20C0665
:1001B00004EBD010401C4008802A02D003E000204D
:1001C00010BD20F00100002900DA0020184310BD06
:1001D00030B480EA010202F0004530F0004221F024
:1001E000004013D090B1C30DD40DC2F31601C0F37B
:1001F0001600E41A41F4000140F400027D349142FB
:1002000001D3641C00E04900002C02DA30BC00205D
:1002100070474FF400000023914201D3891A034331
:1002200040084FEA4101F7D151B1914202D14FF05C
:10023000004105E002D24FF0010101E06FF0010141
:1002400003EBC450284430BC00F048BA2DE9FE4FFF
:10025000804681EA0300C00F0C46009021F0004167
:1002600023F00045B8EB0200A94105D240462146E3
:1002700090461C460B46024623F00040104347D0F0
:10028000270DC7F30A00C3F30A510290401A0190E8
:1002900040286BDAC3F3130040F4801B00989246A9
:1002A00020B10023D2EB030A63EB0B0B01985946F4
:1002B000C0F14002504600F0F0F906460D465046A7
:1002C0005946019A00F0F8F910EB0800614100244A
:1002D00087EA115284EAE7731A4340D0009A62B366
:1002E000019A012A4FEA075215DC001B61EB02015B
:1002F0004FF0004202EA0752CDE90042001C41F5EE
:10030000801132462B4600F02FFA03B0BDE8F08F83
:1003100040462146F9E7001B61EB0201001C41F554
:10032000801300185B412018A2F5001747EB03016A
:1003300040EAD570B6196D4111E06D084FEA3606F6
:1003400045EAC0754FEA0752001B61EB0201001C31
:1003500041F5801149084FEA3000001951413246F9
:100360002B4603B0BDE8F04F00F0EFB90098012232
:1003700040000023D0EB020263EBE07300982146BB
:100380004FEAE074B8EB000061EB0401E9E783F0A9
:1003900000435BE781F0004158E72DE9FE4F81EA19
:1003A000030404F0004421F0004100944FF0000BDE
:1003B00023F0004350EA01045ED052EA03045BD00C
:1003C000C3F30A54C1F30A552C44A4F2F334019444
:1003D000A0FB0254C1F3130141F48011C3F31303D2
:1003E00043F4801301FB024400FB034E840A970A86
:1003F00044EA815447EA8357A4FB076802958D0AB3
:1004000005FB07854FEA932C04FB0C542705029D3E
:100410004FEA065847EA1637B5EB08056EEB070CAE
:10042000870E920E47EA811742EA8312A7FB020168
:10043000B6EB0B0164EB00042B0D43EA0C335E18A2
:1004400044EB1C50DA465146E7FB0201C5F31304A6
:100450004FEA0B3343EA14534FEA0432019C43EA58
:100460000603A4F10C040294009CCDE900B400F052
:100470007BF903B0BDE8F08F00200146F9E72DE9D4
:10048000F04D81EA030404F0004B21F000451446CE
:100490004FF0000A23F0004150EA050220D054EA50
:1004A00001021DD0C5F30A570246C5F31303C1F379
:1004B0001300C1F30A5640F4801543F48013A7EBF0
:1004C0000608101BD64608F2FD3873EB050002D370
:1004D00008F1010801E092185B41B8F1000F03DA5E
:1004E00000200146BDE8F08D00204FF48011064643
:1004F00084460EE0171B73EB050705D3121B63EB55
:10050000050306434CEA010C49084FEA30009218F3
:100510005B4150EA0107EDD152EA030012D082EAB2
:10052000040083EA0501084305D0101BAB4106D245
:100530000122002306E000224FF0004302E06FF0AA
:10054000010253101AEB06004CEB085110EB0A00A5
:1005500041EB0B01BDE8F04D00F0F7B89623002207
:10056000114600F0C4B80EB540F2334102910021AB
:10057000CDE900110A460B4600F0F6F803B000BDC5
:1005800020F00040C10DC0F3160040F400007F29A8
:1005900001DA00207047962903DCC1F19601C840BA
:1005A0007047963988407047C1F30A5210B5C1F3BD
:1005B000130140F2FF3341F480119A4201DA002026
:1005C00010BD40F233439A42A2F2334203DC52425E
:1005D000FFF7AAFD10BD904010BD00F0004230F0C2
:1005E00000400AD0C10D01F56071C0F3160042EA67
:1005F0000151C2084007114370470020014670476F
:1006000001F0004330B421F0004150EA010206D06D
:100610000A0DA2F56072C1F31301002A02DC30BC9E
:1006200000207047440F44EAC104C100E01830BC08
:1006300000EBC25000F052B82DE9F05F05460020F3
:1006400092469B4688460646814640241BE0284643
:10065000414647462246FFF767FD53465A46C01AB1
:10066000914110D311461846224600F016F82D1A73
:1006700067EB01084F4622460120002100F00DF8EB
:1006800017EB00094E41201EA4F10104DFDC4846AF
:1006900031462A464346BDE8F09F202A04DB203A33
:1006A00000FA02F1002070479140C2F1200320FAC5
:1006B00003F3194390407047202A06DBCB17203AFA
:1006C00041FA02F043EAE07306E041FA02F3D04057
:1006D000C2F1200291400843194670470029A8BF83
:1006E0007047401C490008BF20F00100704710B45B
:1006F000B0FA80FC00FA0CF050EA010404BF10BC10
:10070000704749B1CCF1200421FA04F411FA0CF13C
:1007100018BF012121430843A3EB0C01CB1D4FEA75
:1007200000614FEA102042BF002010BC704700EB70
:10073000C35010440029A4BF10BC7047401C49009E
:1007400008BF20F0010010BC704710B5141E73F1F3
:10075000000408DA401C41F1000192185B411A4381
:1007600001D120F0010010BD2DE9F04D92469B46CD
:1007700011B1B1FA81F202E0B0FA80F22032904673
:10078000FFF78BFF04460F4640EA0A0041EA0B01DF
:1007900053465A46084313D0114653EA010019D074
:1007A000C8F140025046FFF7BFFC05460E465046D2
:1007B00059464246FFF771FF084305D0012004E087
:1007C00020463946BDE8F08D0020054346EAE07634
:1007D0002C4337430A986305E40AA0EB0800002283
:1007E000FD0A44EA47540A3002D500200146E9E7F1
:1007F000010510196941DDE9084500196941BDE8A5
:10080000F04DA2E7064C074D06E0E06840F001031A
:1008100094E8070098471034AC42F6D3FFF76AFC1F
:10082000C4260008E4260008FEE7704772B6FEE71B
:1008300070B5044600F0FEF80546601C02D004487E
:100840000078044400F0F6F8401BA042FAD370BDD3
:10085000000000202DE9F84FDFF8B891002409F1DD
:10086000040A0AF1040B23460F270BF1040EC9E01A
:100870000125A5402A40AA427DD1674ED1F804C087
:10088000ACEB0608B44532D014DCBCF1030F3AD00F
:1008900009DCBCF1000F2AD0BCF1010F1CD0BCF167
:1008A000020F31D11DE0BCF1110F17D0BCF1120FB6
:1008B0002AD119E0B8F5881F19D006DCB8F5803FB9
:1008C00015D0B8F5801F1FD111E0B8F5001F0ED06C
:1008D000B8F5041F18D10AE0CB6815E0CB681B1DE2
:1008E00012E0CB6808330FE0CB680C330CE08B6868
:1008F0002BB1012B4FF0080303D0456104E0042322
:1009000002E0056100E00023FF2A01D8064601E06D
:1009100000F104064FEA840501D9A5F12005D6F8B7
:10092000008007FA05FC28EA0C0803FA05F548EAF6
:100930000508C6F800804D68ED0062D5374DAE69F8
:1009400046F00106AE61AD6924F0030605F001052D
:100950000095334D06EB050CDCF80850A607360F62
:1009600007FA06F825EA0805DFF8B880404503D104
:100970004FF0000817E044E0DFF8AC80404502D1BA
:100980004FF001080FE0DFF8A480404502D14FF09E
:10099000020808E0DFF89880404502D14FF00308D4
:1009A00001E04FF0040808FA06F848EA0508CCF818
:1009B00008804D68D9F80060ED034D4601D5164317
:1009C00000E096432E604D68DAF80060AD035546AE
:1009D00001D5164300E096432E604D68DBF80060B9
:1009E000ED025D4601D5164300E096432E604D684A
:1009F000DEF80060AD02754601D5164300E096436F
:100A00002E60641C0D682A46E5407FF431AFBDE8D6
:100A1000F88F000000040140000011100010024097
:100A20000000014000080140000C0140001001409E
:100A30000014014001488068704700000000002059
:100A400070B5040025D094F83D00002520B984F845
:100A50003C50204600F078FA242084F83D002068BD
:100A6000016821F0010101602068016841F4004142
:100A700001602068016821F40041016000F0BCFBC6
:100A80004D4A6168914201D84C4900E04C49884286
:100A900001D2012070BD4B492368B0FBF1F15E68C3
:100AA00026F03F060E435E606368934206D94FF41A
:100AB000967359434FF47A73B1FBF3F12368491CE1
:100AC0001E6A26F03F06314319626168914210D8D0
:100AD0004900401EB0FBF1F2521CC2F30B02042A83
:100AE00001D2042022E0B0FBF1F0401CC0F30B0067
:100AF0001CE0A268F2B301EBC10303EB0116431E35
:100B0000B3FBF6F35B1C43F480431B0549D092B35F
:100B100001EBC10202EB0111401EB0FBF1F0401CE1
:100B2000C0F30B0040F4804040F400402168CA69E3
:100B30004CF6FF739A431043C861D4E90710014390
:100B40002068026822F0C00211430160D4E9030169
:100B500001432068826848F2FF339A431143816061
:100B6000D4E9050108432168CA6822F0FF02104356
:100B7000C86001E00EE016E02068016841F0010164
:100B800001602564202084F83D00256384F83E50F0
:100B9000002070BD01EB4106431EB3FBF6F35B1C66
:100BA000B3E70120C2E701EB4101401EB0FBF1F0C9
:100BB000401CC0F30B00B7E7A086010080841E0034
:100BC00000093D0040420F002DE9FF4F83B0002592
:100BD000DDE910799A4693460446DDF84880009591
:100BE000FFF728FF064694F83D0020287CD1192302
:100BF000012285492046009600F0CCFE0028F5D160
:100C000094F83C0001286FD0012084F83C00206853
:100C10000168C90703D1016841F001010160206842
:100C2000016821F400610160222084F83D00402029
:100C300084F83E0025646762A4F82A90608D2085C0
:100C40007248E062CDE9008653465A462046049930
:100C500000F0A8FD00287DD1208DDFF8B491202779
:100C600068B1012814D00228206801681ED041F420
:100C7000806101602068416980690090B6E0206869
:100C8000416981690091016841F400710160ADE042
:100C90002068016821F48061016072B620684169B2
:100CA00081690091016841F400710AE041F400613A
:100CB000016072B62068416981690091016821F480
:100CC0008061016062B691E0032868D801280CD0E9
:100CD000022843464FF000024946204600960FD0B6
:100CE00000F058FEB0BB10E08BE032464146204693
:100CF00000F0CFFE70BB20680069616A08706CE08C
:100D000000F048FE30BB72B634E02068016821F480
:100D10008061016072B620680069616A0870606A6B
:100D2000401C6062208D401E2085608D401E6085C5
:100D3000384846F2A8110068B0FBF1F0C0EBC000E3
:100D400000EB80000090401E009008D020684069B1
:100D5000C04300E029E040070CD50098F3E744F8D1
:100D6000305F6773A573206940F02000206162B690
:100D700025731AE02068016841F400710160206861
:100D80000069616A0870606A401C6062218D491EBA
:100D90002185618D491E618562B621681BE032465E
:100DA0004146204600F075FE18B1012007B0BDE8AD
:100DB000F08F20680069616A0870606A401C606298
:100DC000218D491E2185618D491E618521684A69F1
:100DD000D24352070AD409690170606A401C6062FC
:100DE000208D401E2085608D401E6085208D00284E
:100DF0007FF46AAF84F83D7084F83E5084F83C502C
:100E0000D4E70220D2E70000020010000000FFFF3C
:100E1000040001000C0000202DE9FF4F83B09A462A
:100E2000DDE9119793460446DDF84080FFF702FEA6
:100E3000054694F83D0020287FD11923012240491E
:100E40002046009500F0A6FD002876D194F83C00DD
:100E5000012872D0012084F83C0020680168C9078D
:100E600003D1016841F0010101602068016821F4AB
:100E700000610160212084F83D00402084F83E009C
:100E800000262664C4F82480A4F82A90608D20856A
:100E90002C48E062CDE9007553465A462046049935
:100EA00000F0FEFC70B930E02A463946204600F0DA
:100EB00023FE58B1206C042804D12068016841F455
:100EC00000710160012007B0BDE8F08F606A216801
:100ED00000780861606A401C6062218D491E89B2F9
:100EE0002185628D521E628522685369DB435B0750
:100EF0000BD469B100781061606A401C6062208D7B
:100F0000401E2085608D401E6085208D0028CBD13D
:100F10002A463946204600F017FD0028CAD154F869
:100F20003D0B016841F400710160202004F81E09A6
:100F3000E67766770020C6E7FFE70220C3E70000F8
:100F4000020010000000FFFF10B586B000210091E4
:100F500001910291039100681349884222D1134CF8
:100F6000A06940F00800A061A069694600F008008F
:100F700004904FF4407000901220019003200390E1
:100F80000B48FFF767FC0B48416841F0E06141F016
:100F900002014160E06940F40010E061E06900F4A2
:100FA0000010049006B010BD005400400010024034
:100FB000000C0140000001400248816802781144A1
:100FC0008160704700000020074810B5016841F0BB
:100FD00010010160032000F067F80F2000F006F810
:100FE00000F024F8002010BD0020024070B50D4D27
:100FF00004464FF47A712878B1FBF0F00A49096889
:10100000B1FBF0F000F0DEFA48B9102C07D2002254
:101010002146501E00F028F800206C6070BD0120B1
:1010200070BD0000000000200C0000200C4808B536
:10103000816941F001018161816901F00101009143
:10104000C16941F08051C161C06900F080500090D9
:101050000448416821F0E06141F00071416008BD41
:101060000010024000000140F0B40E4B1B680C461B
:10107000C3F30223C3F10705042D00D90425191D6C
:10108000072901D2002300E0DB1E012606FA05F144
:10109000491E214099409E40761E16403143F0BCC7
:1010A00001F0F2B80CED00E0064900F00702086814
:1010B0004FF6FF03184040EA0220034A104308603D
:1010C000704700000CED00E00000FA052DE9F04744
:1010D0000F46050061D0434E306800F00700B8426B
:1010E00009D2306820F0070038433060306800F0E3
:1010F0000700B84251D128683B4C810712D5400700
:1011000003D5606840F4E06060602878000703D58C
:10111000606840F4605060606068A96820F0F0008A
:10112000084360602878C00728D06868012810D07C
:101130002168022810D0890700292EDA616821F081
:10114000030101436160FFF775FC804641F2883975
:101150000DE021688903EFE78901EDE7FFF76AFCFD
:10116000A0EB0801494502D90320BDE8F08760687B
:10117000696800F00C00B0EB810FEFD1306800F02F
:101180000700B8420BD9306820F0070038433060C0
:10119000306800F00700B84201D00120E5E7287868
:1011A000400705D56068E96820F4E06008436060A6
:1011B0002878000706D56068296920F4605040EA65
:1011C000C100606000F038F86168084AC1F303119B
:1011D000515CC8400649086006480068FFF706FFF2
:1011E0000020C2E7002002400010024064260008F0
:1011F0000C000020040000200448054900684968EC
:10120000044AC1F30221515CC84070470C00002021
:101210000010024074260008044805490068496827
:10122000044AC1F3C221515CC84070470C00002041
:10123000001002407426000812A185B00FC98DE885
:101240000F0014A0144A006804905168134801F07C
:101250000C03042B10D0082B0ED1C1F38343C90318
:101260001DF803000AD5516804AAC1F34041515C3E
:101270000A4A5043B0FBF1F005B0704708494843B3
:10128000FAE7000002030405060708090A0B0C0D23
:101290000E0F1010010200000010024000127A0030
:1012A00000093D002DE9F84F040070D02078C04DB2
:1012B000C00749D06868C0F38100012807D068687A
:1012C000C0F38100022809D16868C00306D52868E8
:1012D000800339D560680028E7D035E06068B0F554
:1012E000803F0BD010B1B0F5A02F11D0286820F4AA
:1012F00080302860286820F4802002E0286840F4CC
:1013000080302860606890B1FFF794FB06460AE0E1
:10131000286840F480202860F0E700BFFFF78AFBD0
:10132000801B642873D828688003F7D50CE0FFF78A
:1013300081FB064605E000BFFFF77CFB801B6428AD
:10134000F0D828688003F7D420789A4E80074FF0B1
:1013500001094FF0000839D5686810F00C0F07D06C
:101360006868C0F38100022809D16868C00306D408
:101370002868800714D52069012808D110E0206969
:10138000B0B1C6F80090FFF755FB074605E00AE14B
:10139000FFF750FBC01B0228C4D828688007F7D588
:1013A0002868616920F0F80040EAC10028600DE07B
:1013B000C6F80080FFF73EFB074604E0FFF73AFB64
:1013C000C01B022823D828688007F7D4207800079C
:1013D0002CD57948A169D9B1C0F80090FFF72AFB54
:1013E000074604E0FFF726FBC01B02280FD8686AF7
:1013F0008007F7D571484FF4FA510068B0FBF1F05F
:10140000009000BF0098411E0091FAD20EE080E0EB
:10141000C0F80080FFF70EFB074604E0FFF70AFB69
:10142000C01B022875D8686A8007F7D42078400767
:1014300060D5E8690027C00008D4E86940F0805012
:10144000E861E869012700F0805000905C4801687D
:10145000C90513D40168834641F480710160FFF728
:10146000E9FA824606E000BFFFF7E4FAA0EB0A00C3
:1014700064284ED8DBF80000C005F5D5E0680128E7
:101480000AD008B1052813D0286A20F0010028628C
:10149000286A20F0040002E0286A40F00100286277
:1014A000E06841F2883B98B1FFF7C4FA82460BE04E
:1014B000286A40F004002862EEE700BFFFF7BAFA9E
:1014C000A0EB0A0159455AD8286A8007F6D50CE0E6
:1014D000FFF7B0FA824605E0FFF7ACFAA0EB0A018D
:1014E00059454CD8286A8007F6D41FB1E86920F026
:1014F0008050E861E06988B36968C1F3810102291D
:1015000044D00228C6F8608004D0FFF793FA04465E
:1015100038E034E0FFF78EFA074604E0FFF78AFA76
:10152000C01B02282BD828688001F7D4206AB0F5A8
:10153000803F05D16868A16820F4003008436860E6
:10154000D4E908010843696821F47411084368600C
:10155000C6F86090FFF76EFA044606E025E000BF8B
:10156000FFF768FA001B022809D828688001F7D520
:101570001BE000BFFFF75EFA001B022802D9032020
:10158000BDE8F88F28688001F4D40EE00128F7D078
:101590006868226A00F48031914204D1616A00F4E3
:1015A0007010884201D00120EAE70020E8E700003F
:1015B0000010024000004242800442420C00002021
:1015C0000070004010B5401EB0F1807F01D30120B3
:1015D00010BD4FF0E02460610F21601700F054FE51
:1015E0000020A06107202061002010BD70B504001C
:1015F00004D094F83D00002510B106E0012070BD34
:1016000084F83C50204600F023F8242084F83D0064
:101610002068C16821F40051C160204600F094FDAB
:101620002068016921F4904101612068416921F03D
:101630002A0141612068C16841F40051C1602564FC
:10164000202084F83D0084F83E00002070BD00009A
:1016500030B585B00024009401940294039400688E
:101660001449884223D11448C16941F40031C16151
:10167000C16901F400310491816941F00401816183
:1016800080690E4D00F004000490042000900220B8
:1016900001900320039069462846FFF7DBF80820F5
:1016A000CDE90004694628460294FFF7D3F805B057
:1016B00030BD00000044004000100240000801401E
:1016C0002DE9F843044690F83D001F4616460D46A6
:1016D00020284CD1C5B1BEB194F83C00012846D0B9
:1016E000012084F83C004FF00008C4F8408021201D
:1016F00084F83D00FFF79EF9A6848146E684A06841
:10170000B0F5805F03D004E00120BDE8F8832069D4
:1017100028B12E465FF0000584F83C800EE00026DC
:10172000FAE78021204600F06BFDA0B9AEB116F8B3
:10173000010B21684860E08C401EE084E08C4B4641
:101740004FF0000200970028EBD14FF040012046F7
:1017500000F056FD30B10320D7E735F8020BC0F397
:101760000800E6E7202084F83D000020CDE70220B5
:10177000CBE7FEE701684A69D24352050FD46FF404
:1017800080624A61002140F8301F20224273817339
:10179000026942F0040202610173012070470020D7
:1017A000704700002DE9F84F0446006889460B9DFC
:1017B00001689846174641F480610160206801681D
:1017C00041F48071016000954FF0011B00225946E1
:1017D00020460A9B00F0DEF84FF4007A40B1206802
:1017E0000068C00501D5C4F840A00320BDE8F88F0B
:1017F000216809F0FE0008612B46284920460A9A14
:1018000000F0FCF8F0BB20684169806900902A462E
:1018100020460A9900F070F940B1206C04283AD1B2
:101820002068016841F40071016034E0FEB2B8F153
:10183000010F09D02168380A08612A4620460A9912
:1018400000F05AF90028E8D1206806612A462046AF
:101850000A9900F051F90028DFD12068016841F4AD
:101860008071016000950022594620460A9B00F0D5
:1018700091F80028B3D1216809F0FF0040F0010081
:10188000086100E007E02B46044920460A9A00F070
:10189000B5F80028AAD00120A8E700000200010046
:1018A0002DE9F843044600680D46DDE90897016814
:1018B0009846164641F4807101604B4600224FF075
:1018C00001112046009700F065F848B120680068D3
:1018D000C00502D54FF4007020640320BDE8F883F2
:1018E000216805F0FE0008613B464A46154920463E
:1018F00000F084F888B920684169806900903A4610
:101900004946204600F0F8F848B1206C042804D17C
:101910002068016841F4007101600120DEE7F5B242
:10192000B8F1010F09D02168300A08613A464946EA
:10193000204600F0E1F80028E7D12068056100208A
:10194000CCE700000200010070B516460D460446C3
:101950000DE02046FFF70EFF08B1012070BD681CA6
:1019600005D0FFF767F8801BA84207D835B120687B
:101970004069C0434007ECD4002070BD002044F80B
:10198000300F20216173A073216941F02001216192
:101990002073E2E72DE9F0471E4690460D460446C7
:1019A000C1F30747DDF8209008E0701C06D0FFF770
:1019B00041F8A0EB0900B0420FD876B12068012FA2
:1019C00018D0806925EA00000004000C14D0002122
:1019D0004145EAD00020BDE8F087002044F8300FF0
:1019E00020216173A073216941F0200121612073DE
:1019F0000120F0E74069E5E70121E9E72DE9F0473B
:101A00009A4691460E46044600254FF02008C1F341
:101A1000074725E020684069C043400514D420688A
:101A2000016841F40071016021686FF480604861D1
:101A3000256384F83D8084F83E50206C40F004001B
:101A4000206484F83C501FE0B9F1FF3F08D0FEF756
:101A5000F1FFA0EB0A0149450CD8B9F1000F09D0FC
:101A60002068012F13D0806926EA00000004000CD2
:101A70000BD0CFE744F8305F84F80D80A573206960
:101A800040F02000206125730120BDE8F087406907
:101A9000EAE72DE9F041002590460E46044620274E
:101AA00017E04069C043C0060CD454F8301B6FF0F7
:101AB0001000486144F810596777A577206A2062C2
:101AC000257717E0FEF7B6FFA0EB0800B04208D874
:101AD0003EB120684169C9434906E2D40020BDE80F
:101AE000F08144F8305F6773A573206940F02000EF
:101AF000206125730120F2E770B516460D460446B5
:101B00000DE02046FFF736FE08B1012070BD681CCD
:101B100005D0FEF78FFF801BA84207D835B120689B
:101B20004069C0430006ECD4002070BD002044F89A
:101B3000300F20216173A073216941F020012161E0
:101B40002073E2E70D4808B5816941F02001816109
:101B5000816901F020010091816941F004018161F6
:101B6000816901F004010091816941F008018161FE
:101B7000806900F00800009008BD000000100240DD
:101B80000D4810B50B4901600C49416000214FF42C
:101B900080428160C0E9031241618161C1610162DB
:101BA000FEF74EFF002803D0BDE81040FEF73EBE12
:101BB00010BD00000054004018000020801A0600EC
:101BC0000C4810B50A4901604FF4E1314160002131
:101BD00081600C22C160C0E904128161C161FFF71C
:101BE00005FD002803D0BDE81040FEF71FBE10BD64
:101BF000004400406C000020FEE7FEE77047000054
:101C00000349088003484860034888607047000023
:101C1000B00000201F856B3F48E13A3F7047FFF757
:101C2000CBB930B58FB028216846FEF794FA14215D
:101C30000AA8FEF790FA01210804CDE9001000245B
:101C4000029402250491CDE907504FF4E010099069
:101C50006846FFF727FB08B172B6FEE70F20CDE913
:101C60000A054FF48060CDE90C4002210AA80E94C9
:101C7000FFF72CFA002801D072B6FEE70FB030BD96
:101C8000704700002DE9F0412D4F04460D463E8877
:101C9000E6B1A0B2B0FBF6F060F30F04200CB0FB8D
:101CA000F6F0FEF75BFC7968FEF792FAFEF768FC47
:101CB00060F31F44A8B2B0FBF6F0FEF74FFCB96822
:101CC000FEF786FAFEF75CFC60F30F05A0B21E2853
:101CD00000D91E38C0EB0021E12091FBF0F18AB25F
:101CE00062F30F04210C1E2900D91E39C1EB01211A
:101CF00091FBF0F18BB2A9B263F31F441E2900D906
:101D00001E39C1EB012191FBF0F081B2FF2061F39C
:101D10000F05FF2A01D960F30F04FF2B01D960F3EF
:101D20001F44FF2901D960F30F05E008C002A10C90
:101D300040EA4110A9B240EAD10080B2BDE8F0818A
:101D4000B00000202DE9F0412C4F04460D463E889E
:101D5000E6B1A0B2B0FBF6F060F30F04200CB0FBCC
:101D6000F6F0FEF7FBFB7968FEF732FAFEF708FCA7
:101D700060F31F44A8B2B0FBF6F0FEF7EFFBB968C2
:101D8000FEF726FAFEF7FCFB60F30F05A0B21E2853
:101D900000D91E38C0EB0020E12190FBF1F082B2A7
:101DA00062F30F04200C1E2800D91E38C0EB00205F
:101DB00090FBF1F083B2A8B263F31F441E2800D950
:101DC0001E38C0EB002090FBF1F081B2FF2061F3E0
:101DD0000F05FF2A01D960F30F04FF2B01D960F32F
:101DE0001F44FF2901D960F30F052004210C40EAAC
:101DF0000120A9B20843BDE8F0810000B000002036
:101E00002DE9F047414D06460F4628784FF07E54A5
:101E1000C0F58070FEF7A7FB4FF033323C4BFEF766
:101E2000BCFAFEF7EDFBB3B20246360CB9B2981914
:101E300008443F0CB84204D9C01B00EBD0704010DE
:101E400000E000201B1A1FFA83FA331A081A87B21F
:101E500068789EB20D2825D2DFE800F00724240A16
:101E60000D10241316191C1F22004FF07C5419E08A
:101E70004FF0814416E04FF0824413E04FF083446A
:101E800010E04FF085440DE04FF086440AE04FF03B
:101E9000874407E04FF0884404E04FF0894401E0B4
:101EA0004FF08A4421461046FEF760F91949FEF7C3
:101EB0008FF9FEF792FB804689463846FEF753FBC2
:101EC000154A164BFEF769FA04460D463046FEF7F2
:101ED0004AFB07460E465046FEF745FB104A114B9B
:101EE000FEF75BFA3A463346FEF7B0F922462B4638
:101EF000FEF7ACF942464B46FEF7C1FAFEF780FB0F
:101F0000FEF73EFB80B2BDE8F08700001000002025
:101F10003333034000009B43D122DBF97E6ADCBFF0
:101F20009CC420B07268C13F2DE9F04180469520E5
:101F300000F0B2F860F31F450746972000F0ACF8B8
:101F400060F30F04992000F0A7F860F31F449B2072
:101F500000F0A2F860F30F059D2000F09DF860F3FB
:101F60000F069F2000F098F860F31F46194801788B
:101F7000062912D2DFE801F011030E27292B807801
:101F8000401CFEF7F0FA144A144BFEF706FAFEF76F
:101F90000BFB00E00220FEF74BFCA7F57F40FF386B
:101FA00009D10FA000F060F9002060F30F0460F386
:101FB0001F4460F30F05C8F80040C8F80450C8F883
:101FC0000860BDE8F0810320E5E73220E3E7B620B2
:101FD000E1E7000010000020F5F3A62215C6663FD9
:101FE0000D0A496E76616C696420646174610D0A42
:101FF0000000000010B5922000F03AF8182801D037
:10200000012010BD0321412000F066F8082000F0F7
:1020100057F81648032101700821417043218020A0
:1020200000F07EF80320FEF703FCF92000F020F812
:1020300040F00401F92000F073F8FF21842000F043
:102040006FF80021852000F06BF80021862000F059
:1020500067F8FF21872000F063F80221BD2000F01F
:102060005FF83020FFF7CCFD002010BD10000020ED
:102070001FB5002103911023012203A98DE80E0052
:102080001346024652210348FEF79EFD9DF80C00C0
:1020900004B010BD180000201FB5002103911023CB
:1020A000022203A98DE80E000246012352210348B3
:1020B000FEF78AFDBDF80C0004B010BD180000202A
:1020C00010B504460146AA2000F02AF801484470E1
:1020D00010BD0000100000207FB50C4605460146EB
:1020E000812000F01DF800210391E72141EA14212D
:1020F0008DF80C108DF80D401023022103A88DE8F7
:102100000B008222012352210348FEF785FE03487B
:10211000857004707FBD00001800002010000020B2
:102120001FB5002203928DF80C101023012203A981
:102130008DE80E001346024652210248FEF76CFE5F
:102140001FBD00001800002070B50446006801693A
:10215000E26821F44051114301612169A0680843FC
:10216000616908432168CA6841F20C639A430243DB
:10217000CA6020684169A26921F44071114341613C
:102180001E492068884202D1FFF746F801E0FFF7B8
:1021900033F800EBC00101EB00126068642180009D
:1021A000B2FBF0F3B3FBF1F36FF018067343B2FB2D
:1021B000F0F5B2FBF0F605EB8305322303EB0515D2
:1021C000B5FBF1F5B6FBF1F605F0F00505EB0615EC
:1021D000B2FBF0F6B2FBF0F0B0FBF1F06FF01802DA
:1021E000504306EB800003EB0010B0FBF1F02168D8
:1021F00000F00F002844886070BD000000380140E6
:102200002DE9F041984617460E460446069D1DE00E
:10221000681C1BD02DB1FEF70DFCA0EB0800A842F6
:1022200014D92068C16821F4D071C1602068416967
:1022300021F001014161202084F83D0084F83E0036
:10224000002084F83C000320BDE8F081206800688D
:1022500036EA000004D00020B842D9D00020F3E7CD
:102260000120F9E7FEE700000FB4054B10B503A904
:10227000044A029800F028F810BC5DF814FB000036
:1022800089250008140000200907090E002804DB36
:1022900000F1E02080F80014704700F00F0000F11A
:1022A000E02080F8141D704702E008C8121F08C122
:1022B000002AFAD170477047002001E001C1121FC7
:1022C000002AFBD1704700002DE9FF4F8DB09B46DF
:1022D0000F460446002606E025280BD05A460F99E3
:1022E0009047641C761C20780028F5D111B0304648
:1022F000BDE8F08F0025A8460122984900E005437B
:1023000014F8013F203B02FA03F00842F7D120788D
:102310002E2817D114F8010F45F004052A280ED0F5
:102320006FF02F022078A0F1300109290AD808EBBC
:10233000880102EB410100EB0108641CF2E757F849
:10234000048B641C20786C280DD004DC4C2812D03F
:102350006A2811D104E074280DD07A280CD10AE043
:1023600045F4001507E0617845F48015814202D1FB
:10237000641C05F58015641C2078692844D008DCAD
:102380000028B3D0582867D063280FD0642808D11C
:102390003AE0702865D0732812D075285AD0782872
:1023A0005AD05A460F999047761CD5E017F8040B7F
:1023B0008DF8000000208DF80100E946012003E0BF
:1023C00057F8049B4FF0FF3069074FF0000501D428
:1023D0000AE06D1C45450DDA8542FADB19F8051057
:1023E0000029F6D106E06D1C8542FCDB19F80510CA
:1023F0000029F8D12E4404E019F8010B5A460F9930
:1024000090476D1EF8D2A7E00A200021CDE908010F
:10241000C5F3025002280CD001CFC117021E71F182
:1024200000020CDA0023D0EB030063EB01012D2244
:1024300008E0FF1D27F00707F7E80201EEE72A058D
:1024400004D52B228DF8282001223CE0EA073AD05F
:102450002022F7E70A2000E010200021CDE9080142
:1024600007E01020002145F00405CDE908014FF0F8
:102470000808C5F30250022810D001CF00214FF008
:10248000000A2A0720D52278702A0DD0DDE908C37A
:102490008CF0100C5CEA030C0CD015E0FF1D27F04B
:1024A0000707F7E80201EAE740228DF828204FF0FD
:1024B000010A0CE050EA010306D030238DF82830E1
:1024C0008DF82920022292462278582A04D024A28C
:1024D0000DF120090B9209E026A2F9E7DDE90823B6
:1024E000FEF7AAF80B9B9B5C09F8013D50EA01023C
:1024F000F4D1ADEB090020300890680701D44FF00B
:1025000001080899884503DD0898A8EB000000E061
:1025100000208046002506E00AA85A46405D0F9933
:1025200090476D1C761C5545F6DB04E030205A467A
:102530000F999047761CB8F10001A8F10108F5DC6D
:1025400005E019F8010B5A460F999047761C089937
:10255000481E08900029F4DC641CC4E60928010028
:102560003031323334353637383961626364656609
:1025700000000000303132333435363738394142CB
:10258000434445460000000013B54FF6FF73012297
:1025900069460248FFF794F800981CBD6C000020C3
:1025A0001FB5FEF711FDFFF73CFBFFF7CBFAFFF776
:1025B000E7FAFFF705FBFFF71DFD08B116A000E0E5
:1025C0001EA0FFF751FE6846FFF7AEFCDDE90146AD
:1025D000009D324621462846FFF7B4FB07463246A7
:1025E00021462846FFF74EFB8046324621462846C4
:1025F000FFF706FC0246200CCDE90202CDE9007887
:10260000FBB2390CC7F307221548FFF72DFE6420F3
:10261000FEF70EF9D7E70000544353333430383710
:1026200020696E697469616C697A6174696F6E2082
:102630006572726F7221210D0A00000054435333FA
:102640003430383720696E697469616C697A6174F5
:10265000696F6E207375636365737321210D0A00C2
:102660007C260008000000000000000001020304B6
:102670000607080900000000010203042052474237
:10268000383838203A523D2564202020473D2564C3
:102690002020423D25642020205247423838383DD2
:1026A0003058255820205247423536353D30582580
:1026B000582020433D2564204C55583D2564200D6D
:1026C0000A000000E42600080000002018000000B6
:1026D000A8220008FC26000818000020A80400001A
:1026E000B8220008010000001000000000000000F7
:0C26F0000024F4000307000000000000BC
:04000005080000ED02
:00000001FF
