:020000040800F2
:10000000B004002005010008C31B00080B170008FE
:10001000C11B0008BD070008591E000800000000B1
:10002000000000000000000000000000E71B0008C6
:100030004D08000800000000E51B0008E91B00084F
:100040001F0100081F0100081F0100081F01000810
:100050001F0100081F0100081F0100081F01000800
:100060001F0100081F0100081F0100081F010008F0
:100070001F0100081F0100081F0100081F010008E0
:100080001F0100081F0100081F0100081F010008D0
:100090001F0100081F0100081F0100081F010008C0
:1000A0001F0100081F0100081F0100081F010008B0
:1000B0001F0100081F0100081F0100081F010008A0
:1000C0001F0100081F0100081F0100081F01000890
:1000D0001F0100081F0100081F0100081F01000880
:1000E0001F0100081F0100081F010008DFF810D0E1
:1000F00000F0D4FA0048004741270008AFF3008021
:10010000B00400200648804706480047FEE7FEE7A7
:10011000FEE7FEE7FEE7FEE7FEE7FEE7FEE7FEE7B7
:100120003D1C0008ED000008202A04DB203A21FADB
:1001300002F00021704721FA02F3D040C2F1200200
:100140009140084319467047D2B201E000F8012BF4
:10015000491EFBD270470022F6E710B513460A4647
:1001600004461946FFF7F0FF204610BD30B480EA80
:10017000010202F0004530F0004221F0004013D0AF
:1001800090B1C30DD40DC2F31601C0F31600E41AEA
:1001900041F4000140F400027D34914201D3641C1B
:1001A00000E04900002C02DA30BC002070474FF418
:1001B00000000023914201D3891A034340084FEA0B
:1001C0004101F7D151B1914202D14FF0004105E018
:1001D00002D24FF0010101E06FF0010103EBC450C6
:1001E000284430BC00F06BB8420005D0C0F3C752C1
:1001F0005242914201DC0020704700EBC150704731
:1002000096230022114600F063B800F0004230F05F
:1002100000400AD0C10D01F56071C0F3160042EA3A
:100220000151C20840071143704700200146704742
:1002300030B50B46014600202022012409E021FAB6
:1002400002F59D4205D303FA02F5491B04FA02F5B3
:100250002844151EA2F10102F1DC30BD2DE9F05F4A
:100260000546002092469B46884606468146402425
:100270001BE02846414647462246FFF755FF5346B6
:100280005A46C01A914110D311461846224600F032
:1002900017FA2D1A67EB01084F462246012000216C
:1002A00000F00EFA17EB00094E41201EA4F10104E4
:1002B000DFDC484631462A464346BDE8F09F002928
:1002C000A8BF7047401C490008BF20F001007047DC
:1002D00010B4B0FA80FC00FA0CF050EA010404BF3C
:1002E00010BC704749B1CCF1200421FA04F411FA92
:1002F0000CF118BF012121430843A3EB0C01CB1DD6
:100300004FEA00614FEA102042BF002010BC704746
:1003100000EBC35010440029A4BF10BC7047401C20
:10032000490008BF20F0010010BC70472DE9FE4FC6
:10033000804681EA0300C00F0C46009021F0004186
:1003400023F00045B8EB0200A94105D24046214602
:1003500090461C460B46024623F00040104347D00F
:10036000270DC7F30A00C3F30A510290401A019007
:1003700040286BDAC3F3130040F4801B00989246C8
:1003800020B10023D2EB030A63EB0B0B0198594613
:10039000C0F14002504600F093F906460D46504623
:1003A0005946019A00F09BF910EB080061410024C6
:1003B00087EA115284EAE7731A4340D0009A62B385
:1003C000019A012A4FEA075215DC001B61EB02017A
:1003D0004FF0004202EA0752CDE90042001C41F50D
:1003E000801132462B4600F09BF903B0BDE8F08F38
:1003F00040462146F9E7001B61EB0201001C41F574
:10040000801300185B412018A2F5001747EB030189
:1004100040EAD570B6196D4111E06D084FEA360615
:1004200045EAC0754FEA0752001B61EB0201001C50
:1004300041F5801149084FEA300000195141324618
:100440002B4603B0BDE8F04F00F05BB900980122E5
:1004500040000023D0EB020263EBE07300982146DA
:100460004FEAE074B8EB000061EB0401E9E783F0C8
:1004700000435BE781F0004158E72DE9FE4F81EA38
:10048000030404F0004421F0004100944FF0000BFD
:1004900023F0004350EA01045ED052EA03045BD02B
:1004A000C3F30A54C1F30A552C44A4F2F334019463
:1004B000A0FB0254C1F3130141F48011C3F31303F1
:1004C00043F4801301FB024400FB034E840A970AA5
:1004D00044EA815447EA8357A4FB076802958D0AD2
:1004E00005FB07854FEA932C04FB0C542705029D5E
:1004F0004FEA065847EA1637B5EB08056EEB070CCE
:10050000870E920E47EA811742EA8312A7FB020187
:10051000B6EB0B0164EB00042B0D43EA0C335E18C1
:1005200044EB1C50DA465146E7FB0201C5F31304C5
:100530004FEA0B3343EA14534FEA0432019C43EA77
:100540000603A4F10C040294009CCDE900B400F071
:10055000E7F803B0BDE8F08F00200146F9E72DE988
:10056000F04D81EA030404F0004B21F000451446ED
:100570004FF0000A23F0004150EA050220D054EA6F
:1005800001021DD0C5F30A570246C5F31303C1F398
:100590001300C1F30A5640F4801543F48013A7EB0F
:1005A0000608101BD64608F2FD3873EB050002D38F
:1005B00008F1010801E092185B41B8F1000F03DA7D
:1005C00000200146BDE8F08D00204FF48011064662
:1005D00084460EE0171B73EB050705D3121B63EB74
:1005E000050306434CEA010C49084FEA3000921813
:1005F0005B4150EA0107EDD152EA030012D082EAD2
:10060000040083EA0501084305D0101BAB4106D264
:100610000122002306E000224FF0004302E06FF0C9
:10062000010253101AEB06004CEB085110EB0A00C4
:1006300041EB0B01BDE8F04D00F063B8C1F30A5285
:10064000C1F3130140F2FF3341F480119A4202DA00
:1006500000200146704740F233439A42A2F23342EF
:1006600002DC5242FFF760BD00F02AB830B5041E2C
:1006700071F1000404DB4FF00044404264EB0101DF
:10068000141E73F1000405DB1C464FF00043524278
:1006900063EB0403994208BF904230BD064C074DFE
:1006A00006E0E06840F0010394E807009847103442
:1006B000AC42F6D3FFF71EFDA0280008C0280008B2
:1006C000202A04DB203A00FA02F100207047914012
:1006D000C2F1200320FA03F3194390407047202A07
:1006E00006DBCB17203A41FA02F043EAE07306E05A
:1006F00041FA02F3D040C2F120029140084319466A
:10070000704710B5141E73F1000408DA401C41F163
:10071000000192185B411A4301D120F0010010BD85
:100720002DE9F04D92469B4611B1B1FA81F202E0FB
:10073000B0FA80F220329046FFF7C2FF04460F461F
:1007400040EA0A0041EA0B0153465A46084313D0D7
:10075000114653EA010019D0C8F140025046FFF794
:10076000E3FC05460E46504659464246FFF7A8FFB1
:10077000084305D0012004E020463946BDE8F08D4D
:100780000020054346EAE0762C4337430A98630588
:10079000E40AA0EB08000022FD0A44EA47540A30AC
:1007A00002D500200146E9E7010510196941DDE99C
:1007B000084500196941BDE8F04DA2E7FEE70000D9
:1007C0001FB510238DF80C00012203A98DE80E003F
:1007D0001346024604480188044800F0BDF99DF81C
:1007E0000C0004B010BD0000000000201800002024
:1007F0001FB5002103911023022203A98DE80E00EA
:100800000246054801230188044800F0A5F9BDF817
:100810000C0004B010BD00000000002018000020F3
:100820001FB5002203928DF80C101023012203A99A
:100830008DE80E001346024602480188024800F087
:100840009BFA1FBD00000020180000207047704771
:100850002DE9F84FDFF890A100220AF1040B1446AD
:1008600001274FF00F090BF1040E00BF0B6807FAC8
:1008700004F52B40AB4274D1DFF870C14E68A6EB93
:100880000C0866452BD00DDC032E34D005DC36B3C6
:10089000012E19D0022E2FD11BE0112E16D0122EB0
:1008A0002AD119E0B8F5881F19D006DCB8F5803FC9
:1008B00015D0B8F5801F1FD111E0B8F5001F0ED07C
:1008C000B8F5041F18D10AE0CA6815E0CA68121DFD
:1008D00012E0CA6808320FE0CA680C320CE08A687D
:1008E0002AB1012A4FF0080203D0456104E0042236
:1008F00002E0056100E00022FF2B01D8064601E07E
:1009000000F104064FEA840501D9A5F12005D6F8C7
:1009100000C009FA05F82CEA080C02FA05F54CEAC1
:10092000050CC6F800C04D68ED0057D5304DAE69D6
:1009300046F00106AE61AD6924F0030605F001053D
:1009400000952C4D06EB050CDCF80850A6074FEA85
:10095000167809FA08F6B543274EB04202D10026B0
:1009600010E03BE0254EB04201D101260AE0244EC2
:10097000B04201D1022605E0224EB04201D1032649
:1009800000E0042606FA08F62E43CCF808604D680D
:10099000DAF80060ED03554601D51E4300E09E43A2
:1009A0002E604D68DBF80060AD035D4601D51E4347
:1009B00000E09E432E604D68DEF80060ED02754653
:1009C00001D51E4300E09E432E604D68AD020E4DE2
:1009D0002E6801D51E4300E09E432E60641C102C3F
:1009E000FFF444AFBDE8F88F00040140000011108F
:1009F000001002400000014000080140000C0140CE
:100A000000100140001401400C04014001488068BE
:100A1000704700000400002070B504001BD094F85B
:100A20003D00002520B984F83C50204600F042FAF1
:100A3000242084F83D002068016821F00101016054
:100A400000F0B0FB404A6168914201D83F4900E0A4
:100A50003F49884201D2012070BD3E492368B0FB66
:100A6000F1F159606368934206D94FF49673594384
:100A70004FF47A73B1FBF3F12368491C1962616882
:100A8000914210D84900401EB0FBF1F2521CC2F353
:100A90000B02042A01D2042022E0B0FBF1F0401C3A
:100AA000C0F30B001CE0A368CBB301EBC10202EB67
:100AB0000116421EB2FBF6F2521C42F480421205AD
:100AC00036D06BB301EBC10202EB0111401EB0FB4B
:100AD000F1F0401CC0F30B0040F4804040F40040B3
:100AE0002168C861D4E90701084321680860D4E996
:100AF0000310084321688860D4E905010843216890
:100B0000C8602068016841F001010160256420206F
:100B100084F83D00256384F83E50002070BD00E05D
:100B200008E001EB4106421EB2FBF6F2521CC6E79A
:100B30000120D5E701EB4101401EB0FBF1F0401C64
:100B4000C0F30B00CAE70000A086010080841E00ED
:100B500000093D0040420F002DE9FF4F83B09A4647
:100B6000DDE9118793460446DDF84090FFF74EFF1C
:100B7000054694F83D00202872D1192301227B49B3
:100B80002046009500F0C5FE0028F5D194F83C0001
:100B9000012865D0012084F83C0020680168C9075D
:100BA00003D1016841F0010101602068016821F46E
:100BB00000610160222084F83D00402084F83E005E
:100BC00000262664C4F82490A4F82A806848E062CD
:100BD000608D2085CDE9007553465A46204604991C
:100BE00000F0A8FD28B1206C84F83C60042851D0A6
:100BF00075E0208DDFF87C8168B1012814D00228CF
:100C0000206801681ED041F480610160206841695C
:100C1000806900909BE020684169816900910168CA
:100C200041F40071016092E02068016821F4806164
:100C3000016072B62068416981690091016841F4E0
:100C400000710AE041F40061016072B620684169F8
:100C500081690091016821F48061016062B676E0EB
:100C600081E0032850D801280BD002283B464FF0E2
:100C7000000241462046009512D000F04AFE70BBAB
:100C800013E02A463946204600F0B8FE30B1206C09
:100C9000202824D0012007B0BDE8F08F20684BE069
:100CA00000F037FED8B972B61BE02068016821F465
:100CB0008061016072B620680169606A421C6262EC
:100CC0000170208D401E2085608D401E60853B4652
:100CD000002241462046009500F01BFE08B103208B
:100CE000D9E72068016841F400710160206801695A
:100CF000606A421C62620170208D401E2085608DFA
:100D0000401E608562B6C9E72A463946204600F093
:100D100075FE0028BBD120680169606A421C6262CE
:100D20000170208D401E2085608D401E60852068EA
:100D30004169C94349070AD40169606A421C626279
:100D40000170208D401E2085608D401E6085208DA5
:100D5000002886D1202084F83D0084F83E6084F885
:100D60003C60002097E7022095E700000200100099
:100D70000000FFFF040001002DE9FF4F83B09A46F9
:100D8000DDE9118793460446DDF84090FFF73EFE0B
:100D9000064694F83D0020287DD1192301224349BD
:100DA0002046009600F0B5FD00287CD194F83C0068
:100DB000012878D0012084F83C0020680168C90728
:100DC00003D1016841F0010101602068016821F44C
:100DD00000610160212084F83D00402084F83E003D
:100DE00000252564C4F82490A4F82A803048E062E5
:100DF000608D2085CDE9007653465A4620460499F9
:100E000000F010FD80B3206C84F83C50042848D0DA
:100E100008E032463946204600F021FE30B1206C11
:100E2000042839D0032007B0BDE8F08F606A411C68
:100E30006162216800780861208D401E80B22085A3
:100E4000618D491E618521684A69D24352070BD4DE
:100E500068B1606A421C626200780861208D401EA1
:100E60002085608D401E6085208D0028D1D13246BE
:100E70003946204600F026FD0028D0D154F83D0B1D
:100E8000016841F400710160202004F81E09E57733
:100E900065770020C7E706E02068016841F400712B
:100EA00001600120BFE70220BDE700000200100042
:100EB0000000FFFF10B586B0002100910191029162
:100EC000039100681349884222D1134CA06940F075
:100ED0000800A061A069694600F0080004904FF482
:100EE0004070009012200190032003900B48FFF700
:100EF000AFFC0B48416841F0E06141F00201416004
:100F0000E06940F40010E061E06900F40010049032
:100F100006B010BD0054004000100240000C01401B
:100F200000000140024881680278114481607047E6
:100F300004000020074810B5016841F0100101606D
:100F4000032000F067F8002000F006F800F024F815
:100F5000002010BD0020024070B50D4D04464FF436
:100F60007A712878B1FBF0F00A490968B1FBF0F01A
:100F700000F0F0FA48B9102C07D200222146501E8A
:100F800000F028F800206C6070BD012070BD0000EA
:100F900004000020100000200C4808B5816941F0D1
:100FA00001018161816901F001010091C16941F094
:100FB0008051C161C06900F08050009004484168D0
:100FC00021F0E06141F00071416008BD0010024075
:100FD00000000140F0B40E4B1B680C46C3F3022323
:100FE000C3F10705042D00D90425191D072901D2D5
:100FF000002300E0DB1E012606FA05F1491E214010
:1010000099409E40761E16403143F0BC00F0DABD98
:101010000CED00E0064900F0070208684FF6FF03F8
:10102000184040EA0220034A10430860704700005D
:101030000CED00E00000FA052DE9F047DFF85481DF
:1010400005460E46D8F8000000F00700B0420CD26A
:10105000D8F8001021F007013143C8F80010D8F883
:10106000000000F00700B0426FD128684A4C8107A9
:1010700012D5400703D5606840F4E06060602878CE
:10108000000703D5606840F4605060606068A9683C
:1010900020F0F000084360602878C00744D06868FA
:1010A000012816D02168022816D0890700294CDAB9
:1010B000616821F0030101436160FFF7A7FC6968E3
:1010C000074641F2883001290ED00229814618D006
:1010D00026E021688903E9E78901E7E7FFF796FC45
:1010E000C11B494501D918E081466068C0F3810001
:1010F0000128F3D118E000BFFFF788FCC11B494568
:101100000BD86068C0F381000228F5D10CE000BF65
:10111000FFF77CFCC11B494502D90320BDE8F087DD
:10112000606810F00C0FF3D1D8F80010404601F0C1
:101130000701B1420BD9016821F007013143016079
:10114000006800F00700B04201D00120E6E72878EF
:10115000400705D56068E96820F4E06008436060F6
:101160002878000706D56068296920F4605040EAB5
:10117000C100606000F036F86168084AC1F30311ED
:10118000515CC840064908600020FFF7E5FE0020DA
:10119000C4E7000000200240001002408828000838
:1011A000100000200448054900684968044AC1F35A
:1011B0000221515CC840704710000020001002401E
:1011C000982800080448054900684968044AC1F3A2
:1011D000C221515CC840704710000020001002403E
:1011E0009828000812A185B00FC98DE80F0014A03F
:1011F000144A006804905168134801F00C03042B52
:1012000010D0082B0ED1C1F38343C9031DF803008E
:101210000AD5516804AAC1F34041515C0A4A5043BF
:10122000B0FBF1F005B0704708494843FAE7000009
:1012300002030405060708090A0B0C0D0E0F101017
:10124000010200000010024000127A0000093D0077
:101250002DE9F84F04460078B94DC00748D06868BA
:10126000C0F38100012807D06868C0F3810002281C
:1012700009D16868C00306D52868800338D560683E
:1012800000286FD034E06068B0F5803F0BD010B11B
:10129000B0F5A02F11D0286820F48030286028688D
:1012A00020F4802002E0286840F4803028606068E4
:1012B00088B1FFF7ABFB064609E0286840F48020C0
:1012C0002860F0E7FFF7A2FB801B642875D8286828
:1012D0008003F7D50CE0FFF799FB064605E000BF59
:1012E000FFF794FB801B6428F0D828688003F7D4AC
:1012F0002078944E80074FF001094FF000083BD54D
:10130000686810F00C0F07D06868C0F381000228ED
:1013100009D16868C00306D42868800714D52069FD
:1013200001281FD110E02069B0B1C6F80090FFF786
:101330006DFB074605E000BFFFF768FBC01B0228F6
:10134000C4D828688007F7D52868616920F0F800BC
:1013500040EAC10028600FE0C6F80080FFF756FBA6
:10136000074606E0E9E000BFFFF750FBC01B02287C
:1013700023D828688007F7D4207800072CD5724836
:10138000A169D9B1C0F80090FFF740FB074604E01F
:10139000FFF73CFBC01B02280FD8686A8007F7D50F
:1013A0006A484FF4FA510068B0FBF1F0009000BFBA
:1013B0000098411E0091FAD20EE080E0C0F8008053
:1013C000FFF724FB074604E0FFF720FBC01B0228C1
:1013D00075D8686A8007F7D42078400760D5E86937
:1013E0000027C00008D4E86940F08050E861E8694F
:1013F000012700F08050009055480168C90513D4BA
:101400000168834641F480710160FFF7FFFA82466C
:1014100006E000BFFFF7FAFAA0EB0A0064284ED8F6
:10142000DBF80000C005F5D5E06801280AD008B156
:10143000052813D0286A20F001002862286A20F0CD
:10144000040002E0286A40F001002862E06841F2EE
:10145000883B98B1FFF7DAFA82460BE0286A40F041
:1014600004002862EEE700BFFFF7D0FAA0EB0A0104
:1014700059455AD8286A8007F6D50CE0FFF7C6FA16
:10148000824605E0FFF7C2FAA0EB0A0159454CD8A5
:10149000286A8007F6D41FB1E86920F08050E8611F
:1014A000E06988B36968C1F38101022945D0022847
:1014B000C6F8608004D0FFF7A9FA044638E034E0AB
:1014C000FFF7A4FA074604E0FFF7A0FAC01B0228C2
:1014D0002BD828688001F7D4206AB0F5803F05D169
:1014E0006868A16820F4003008436860D4E9080106
:1014F0000843696821F4741108436860C6F8609075
:10150000FFF784FA044606E015E000BFFFF77EFA15
:10151000001B022809D828688001F7D50BE000BF1E
:10152000FFF774FA001B022802D90320BDE8F88FE8
:1015300028688001F4D40020F8E70120F6E70000D5
:10154000001002400000424280044242100000208D
:101550000070004010B5401EB0F1807F01D3012023
:1015600010BD4FF0E02460610F21601700F02AFBEE
:101570000020A06107202061002010BD70B504008C
:1015800004D094F83900002510B106E0012070BDA8
:1015900084F83850204600F023F8242084F83900DD
:1015A0002068C16821F40051C160204600F06AFB48
:1015B0002068016921F4904101612068416921F0AE
:1015C0002A0141612068C16841F40051C160E563AE
:1015D000202084F8390084F83A00002070BD000013
:1015E00030B585B0002400940194029403940068FF
:1015F0001449884223D11448C16941F40031C161C2
:10160000C16901F400310491816941F004018161F3
:1016100080690E4D00F00400049004200090022028
:1016200001900320039069462846FFF711F908202E
:10163000CDE90004694628460294FFF709F905B090
:1016400030BD00000044004000100240000801408E
:101650002DE9F843044690F839001F4616460D461A
:10166000202850D1A5B19EB194F8380001284AD065
:10167000012084F838004FF00008C4F83C80212095
:1016800084F83900FFF7C2F9A6848146E68426E093
:101690000120BDE8F883E08C401EE084A0684B4642
:1016A000B0F5805F4FF000024FF0800120460097B8
:1016B00003D000F09FFBE8B90DE000F09BFBC8B938
:1016C00028882168C0F308004860206908B16D1CB3
:1016D00005E0AD1C03E0216815F8010B4860E08CC3
:1016E0000028D8D14B46002240212046009700F028
:1016F00081FB08B10320CCE7202084F8390084F86E
:1017000038800020C5E70220C3E7FEE701684A6988
:10171000D24352050CD46FF480624A610421016403
:10172000002140F8301F20224273017301207047CE
:10173000002070472DE9F84F0446006889460B9D4C
:1017400001689846174641F480610160206801688D
:1017500041F48071016000954FF0011A002251465A
:1017600020460A9B00F0D5F8F0BB216809F0FE0086
:1017700008610AF1010B2B46594620460A9A00F0EF
:10178000F9F818B1206C042812D03AE020684169B9
:10179000806900902A4620460A9900F060F950B10D
:1017A000206C04282DD12068016841F4007101608B
:1017B0000120BDE8F88FFEB2B8F1010F09D0216811
:1017C000380A08612A4620460A9900F048F900289C
:1017D000E6D1206806612A4620460A9900F03FF9C2
:1017E0000028DDD1206800E00BE0016841F4807141
:1017F000016000950022514620460A9B00F089F8BE
:1018000008B10320D5E7216809F0FF0040F001008E
:1018100008612B46594620460A9A00F0ABF800288A
:10182000B0D1C6E72DE9F843044600680D46DDE96E
:10183000089701689846164641F4807101604B464E
:1018400000224FF001112046009700F062F8E8B93D
:10185000216805F0FE0008613B464A4618492046CB
:1018600000F088F828B1206C04280FD10120BDE8D1
:10187000F88320684169806900903A4649462046CD
:1018800000F0EDF820B1206C042813D00320EEE71F
:10189000F5B2B8F1010F09D02168300A08613A4663
:1018A0004946204600F0DBF80028ECD120680561AD
:1018B0000020DCE72068016841F400710160D5E791
:1018C0000200010070B516460D4604461AE0204697
:1018D000FFF71CFF08B1012070BD681C12D025B1B4
:1018E000FFF794F8801BA8420CD954F8400F40F041
:1018F000200044F81009002020602021617320732B
:10190000032070BD20684069C0434007DFD4002039
:1019100070BD2DE9F0471E4690460D460446C1F3C2
:101920000747DDF8209012E0701C10D02EB1FFF7B1
:101930006DF8A0EB0900B04209D9002044F8300F3F
:1019400020216173A07320730320BDE8F087206815
:10195000012F0AD0806925EA00000004000C06D09F
:1019600000214145E0D00020EFE74069F3E7012185
:10197000F7E700002DE9F0479A4691460D460446E8
:1019800000264FF02008C1F307472AE0206840698D
:10199000C043400512D42068016841F40071016021
:1019A00021686FF48060486104202064266384F815
:1019B0003D8084F83C600120BDE8F087B9F1FF3F2D
:1019C0000FD0B9F1000F05D0FFF720F8A0EB0A0106
:1019D000494506D944F8306F84F80D8026730320FA
:1019E000EAE72068012F07D0D0F8180025EA0000A8
:1019F0000004000CE0D0C9E74069F7E72DE9F041A9
:101A0000002590460E460446202721E04069C04349
:101A1000C0060CD421686FF010004861256425636E
:101A200084F83D7084F83C500120BDE8F0812EB16F
:101A3000FEF7ECFFA0EB0800B04209D954F8400FC4
:101A400040F0200044F80409677025700320ECE79B
:101A500020684169C9434906D8D40020E5E770B53C
:101A600016460D4604461AE02046FFF74FFE08B121
:101A7000012070BD681C12D025B1FEF7C7FF801B86
:101A8000A8420CD954F8400F40F0200044F8100947
:101A900000202060202161732073032070BD206826
:101AA0004069C0430006DFD4002070BD10B50F2090
:101AB000FEF786FEB12801D0002010BD00F006F828
:101AC00002211020FEF7ACFE012010BD10B5112040
:101AD000FEF78EFEC0B240F0040421461120FEF74E
:101AE0009FFE04E01120FEF783FE00F00404002CAA
:101AF000F8D110BD10B51120FEF77AFEC0B240F04B
:101B00000101BDE810401120FEF78ABE0D4808B55E
:101B1000816941F020018161816901F0200100911A
:101B2000816941F004018161816901F00401009142
:101B3000816941F008018161806900F0080000902E
:101B400008BD0000001002400D4810B50B490160AF
:101B50000C49416000214FF480428160C0E90312CA
:101B600041618161C1610162FEF756FF002803D027
:101B7000BDE81040FEF76BBE10BD000000540040F1
:101B800018000020A08601000C4810B50A49016029
:101B90004FF4E1314160002181600C22C160C0E955
:101BA00004128161C161FFF7E9FC002803D0BDE8A0
:101BB0001040FEF74CBE10BD004400406C000020F9
:101BC000FEE770470907090E002806DA00F00F004B
:101BD00000F1E02080F8141D704700F1E02080F84B
:101BE0000014704770477047FFF79CB930B58FB04D
:101BF00028216846FEF7AFFA14210AA8FEF7ABFACF
:101C000001210804CDE9001000240294022504916A
:101C1000CDE907504FF4E01009906846FFF718FB34
:101C20000F20CDE90A056802CDE90C4002210AA87F
:101C30000E94FFF701FA0FB030BD00000D480168A7
:101C400041F00101016041680B4A114041600168A7
:101C50000A4A11400160016821F480210160416855
:101C600021F4FE0141604FF41F0181600449C0036B
:101C700008607047001002400000FFF8FFFFF6FE0A
:101C800008ED00E02DE9F041044600680169E268D2
:101C900021F44051114301612169A0680843616941
:101CA00008432168CA6841F20C639A430243CA6040
:101CB00020684169A26921F44071114341614C4996
:101CC00020686425322688423CD1FFF77BFA00EB7E
:101CD000C00101EB001061688900B0FBF1F7FFF76C
:101CE00071FA00EBC00101EB00106168B046890099
:101CF000B0FBF1F0B0FBF5F06FF01801484307EBD3
:101D0000800106EB0110B0FBF5F000F0F006FFF7E4
:101D100059FA00EBC00101EB001061688900B0FBCB
:101D2000F1F0B0FBF5F006EB0016FFF74BFA00EB15
:101D3000C00101EB001061688900B0FBF1F7FFF70B
:101D400041FA3BE0FFF72EFA00EBC00101EB001077
:101D500061688900B0FBF1F7FFF724FA00EBC001DE
:101D600001EB00106168B0468900B0FBF1F0B0FBF8
:101D7000F5F06FF01801484307EB800106EB011006
:101D8000B0FBF5F000F0F006FFF70CFA00EBC00135
:101D900001EB001061688900B0FBF1F0B0FBF5F0D9
:101DA00006EB0016FFF7FEF900EBC00101EB001097
:101DB00061688900B0FBF1F7FFF7F4F900EBC001AF
:101DC00001EB001061688900B0FBF1F0B0FBF5F0A9
:101DD0006FF01801484307EB800108EB0110B0FBDE
:101DE000F5F0216800F00F0030448860BDE8F08114
:101DF000003801402DE9F041984617460E4604464A
:101E0000069D1DE0681C1BD02DB1FEF7FFFDA0EB69
:101E10000800A84214D92068C16821F4D071C160BB
:101E20002068416921F001014161202084F83900D6
:101E300084F83A00002084F838000320BDE8F081DF
:101E40002068006836EA000004D00020B842D9D0EB
:101E50000020F3E70120F9E7FEE700000FB4054B8F
:101E600010B503A9044A029800F0DAF810BC5DF836
:101E700014FB0000292700081400002002E008C815
:101E8000121F08C1002AFAD170477047002001E0F4
:101E900001C1121F002AFBD1704700002DE9FF5F2E
:101EA00082B00021DDE90430020DDDF840B00343CB
:101EB00018D044F61050A2F2FF3242431514119884
:101EC00001281FD0A5EB0B00401C5FEA000A4FF071
:101ED00000064E4FDFF83891B046504615D5CAF18E
:101EE000000413E0119801244AA3012801D16FEAEC
:101EF0000B010298119AC0E90031C0E9024206B014
:101F0000BDE8F09FCBF10000DFE704460021404A26
:101F1000491842EB0450CDE9001012E0E00707D069
:101F200032463B4640464946FEF7A7FA8046894678
:101F300032463B4610461946FEF79FFA06460F46C4
:101F40006410002CEAD1DDE90401DDE90023BAF1D7
:101F5000000F06DAFEF791FA42464B46FEF78DFA7D
:101F600005E0FEF7FCFA42464B46FEF7F8FA044657
:101F70000E460022284BFEF779FB03D84FF0FF30C6
:101F8000014607E00022254B20463146FEF7CEF9F8
:101F9000FEF754FB102409E0002C0ADB0A22002380
:101FA000FEF75CF9039B30321A55641E50EA0102B9
:101FB000F2D1641C039AC4F111031444119A012A4A
:101FC00003D0012208430DD10AE0084304D00020C9
:101FD0004FF0110B119072E7A3EB0B056D1E0DE096
:101FE0005B4504DD4FF0000205F1010504E003DA72
:101FF0004FF00002A5F10105002AECD002981199DA
:10200000C0E90231C0E9004579E700000000144052
:102010000000F03F300000000000F0430000E03F0F
:102020002DE9FF4F95B09A46884606460025EEE119
:10203000252877D100242746F94A0121039400E09E
:10204000044316F8013F203B01FA03F01042F7D198
:1020500030782A2811D06FF02F033078A0F13002A9
:10206000092A16D8039A44F0020402EB820203EB19
:1020700042021044761C0390EFE758F8042B0392B9
:10208000002A03DA504244F40054039044F002045E
:10209000761C30782E2816D116F8010F44F004046F
:1020A0002A280DD06FF02F023078A0F13003092BD1
:1020B00009D807EB870302EB4303C718761CF3E745
:1020C00058F8047B761C30786C280FD006DC4C283E
:1020D00017D068280DD06A2814D104E0742810D0D5
:1020E0007A280FD10DE044F400140AE044F480147F
:1020F00001E044F440147278824202D104F5801465
:10210000761C761C307866280BD013DC582877D0E4
:1021100009DC002875D04528F6D04628F4D0472899
:102120001AD193E118E0632835D0642879D0652866
:1021300012D18BE1702873D008DC6728F1D06928B0
:102140006FD06E280DD06F2806D1ACE073282CD04C
:10215000752874D0782853D05246179990476D1C33
:1021600054E1C4F30250022809D003280DD0D8F856
:10217000001004280DD00D6008F1040846E1D8F8DD
:102180000010EA17C1E90052F6E7D8F800100D80F8
:10219000F2E70D70F0E718F8041B8DF8001000202E
:1021A0008DF80100EB46012003E058F804BB4FF026
:1021B000FF3061074FF0000102D40DE009F1010189
:1021C0008946B9420FDA8145F8DB1BF8091000296E
:1021D000F4D108E009F1010189468142FADB1BF8DC
:1021E00009100029F6D103985346A0EB09072146B0
:1021F0003846179A00F080FA284400EB090507E0FA
:1022000044E008E10DE01BF8010B52461799904796
:10221000B9F10109F7D2534621463846179AF2E040
:1022200039E00A21C4F302524FF0000B0091022A58
:1022300006D058F8040BC117032A09D00AE023E09E
:1022400008F1070020F00702F2E80201904605E0DD
:1022500000B2C117042A01D140B2C117002906DA21
:102260000A460021404261EB02012D2202E02205D4
:1022700004D52B228DF80420012203E0E20701D0CF
:102280002022F7E7914657E00A2100E010214FF0A5
:10229000000B00910BE010214FF0000B44F0040400
:1022A0000827009103E008204FF0000B0090C4F3D2
:1022B0000252022A05D058F8040B0021032A08D044
:1022C00008E008F1070020F00702F2E8020190465A
:1022D00003E080B2042A00D1C0B24FF00009220707
:1022E0002AD53278702A07D0DDF800C08CF0100CA7
:1022F0005CEA0B0C05D00EE040228DF80420012290
:1023000008E050EA010306D030238DF804308DF840
:10231000052002229146009B83F0080353EA0B0339
:102320000AD150EA010201D1620705D530228DF8A9
:1023300004204FF001097F1E3278582A04D039A2B8
:102340000C920CAA02920BE03BA2F9E75B46009AC2
:10235000FDF784FF0C9B9B5C029A521E0292137045
:1023600050EA0102F2D1029804A9081A00F1200BE8
:10237000600702D524F4803400E001275F4502DDC8
:10238000A7EB0B0000E0002000EB0B01009003988E
:102390004944401A0390E00306D453462146179A55
:1023A000039800F0A9F90544002706E001A8524669
:1023B000C05D179990476D1C7F1C4F45F6DBE0030D
:1023C0000CD553462146179A039800F095F9054419
:1023D00004E030205246179990476D1C0099481E22
:1023E00000900029F5DC08E0029802995246007836
:1023F000491C0291179990476D1CBBF10001ABF18C
:10240000010BF1DC5BE100F065F90544761C3078E6
:1024100000287FF40DAE19B02846BDE8F08F00000B
:1024200009280100303132333435363738396162AA
:10243000636465660000000030313233343536376E
:10244000383941424344454600000000600700D44B
:10245000062708F1070020F00700F0E80223804675
:1024600003F0004C5FEA0C0001D097A009E02005C2
:1024700001D596A005E0E00701D095A001E0AFF2FC
:102480004C001390307823F0004365280CD006DC14
:10249000452809D046281DD047287FD13BE0662833
:1024A00018D067287AD136E00021112F01DB1120E6
:1024B00000E0781CCDE9000104A90CA8FFF7EEFCB0
:1024C000DDE90D010C9A4FF0000B07F101091092A4
:1024D00000914EE04FF000400097CDE9011004A9B3
:1024E0000CA8FFF7DBFCDDE90D020C9B0F994FF008
:1024F000000B91461093009211B9791C00EB010971
:10250000B7EB090003D4C0F1FF3B07F10109A9EBC8
:102510000700019042E0012F00DA01270021112F6E
:1025200001DD112000E03846CDE9000104A90CA826
:10253000FFF7B4FCDDE90D010C9A00914FF0000BA0
:10254000B946109221070FD4009A4A4503DA914602
:1025500001E0A9F10109B9F1010F05DD109AA9F116
:102560000101515C3029F4D0B84202DA10F1040FB5
:1025700003DA0121CDE9011010E0002803DC8344D7
:10258000A9EB000102E0411C494500DD8946A0EBB2
:102590000B00401C01904FF000400290200705D432
:1025A0000198484502DB4FF0FF30019000208DF884
:1025B0004B0002980DF14B07B0F1004F25D00220DF
:1025C0000C902B200D90029800280CDA40420290CB
:1025D0002D200D9007E00A210298FDF729FE3031E9
:1025E000029007F8011D0C99481E0C900029F2DC9E
:1025F00002980028EFD1791E0D980870307800F00D
:10260000200040F0450007F8020D11A8C01BC01DB6
:1026100002901398007800B1012000EB09010198A5
:1026200001EBE071029801440398401A401E0390A8
:10263000E00306D453462146179A039800F05CF84D
:1026400005441398007818B15246179990476D1CAD
:10265000E00323D553462146179A039800F04CF81F
:1026600005441BE0BBF1000F07DB0098584504DD73
:102670001098179910F80B0001E017993020524676
:10268000904701980BF1010B401E05F101050190E7
:1026900004D12E205246179990476D1CB9F10001C4
:1026A000A9F10109DEDC05E017F8010B5246179984
:1026B00090476D1C0299481E02900029F4DC534695
:1026C0002146179A03989EE62D0000002B0000007B
:1026D000200000002DE9F041044600251E46174663
:1026E000880404D405E039462020B0476D1C641EE0
:1026F000F9D52846BDE8F0812DE9F04104460025D2
:102700001E469046C80301D5302700E020278804E4
:1027100004D505E041463846B0476D1C641EF9D526
:102720002846BDE8F081000013B54FF6FF73012283
:1027300069460248FEF78CFF00981CBD6C00002023
:102740002DE9FC4100273E46FEF7F4FBFFF74EFA69
:10275000FFF7DCF9FFF7F8F9FFF716FA28A0FFF703
:102760007DFBFFF7A3F9002843D02EA0FFF776FBEF
:10277000FFF7C0F92720FEF723F8C00715D028205F
:10278000FEF71EF804462920FEF71AF805462A200F
:10279000FEF716F8000400EB05202044FDF730FD9D
:1027A0006FF00B01FDF720FD07462720FEF708F824
:1027B00080070ED52B20FEF703F804462C20FDF7EA
:1027C000FFFF04EB0020FDF71BFD1C49FDF7CEFCCD
:1027D00006463046FDF719FD04460D463846FDF71E
:1027E00014FD02460B4616A0CDE90045FFF736FB67
:1027F000BEE71FA0FFF732FB0020BDE8FC81000010
:102800000A50726573737572652053656E736F72CB
:1028100020546573742050726F6772616D202E2E84
:102820002E0A00000A507265737375726520536535
:102830006E736F72204F4B0A000000000000C84208
:102840005072657373757265203D2025362E326691
:1028500020685061202C2054656D7065726174751C
:102860007265203D2025362E326627430D0A000072
:102870000A50726573737572652053656E736F725B
:10288000204572726F720A00000000000000000014
:102890000102030406070809000000000102030406
:1028A000C028000800000020180000007C1E00085E
:1028B000D828000818000020980400008C1E00088A
:1028C000B80000000100000010000000000000003F
:0828D00000A24A040000000010
:04000005080000ED02
:00000001FF
